{
  "contractName": "CryptoBirds",
  "abi": [
    {
      "inputs": [],
      "stateMutability": "nonpayable",
      "type": "constructor"
    },
    {
      "inputs": [],
      "name": "name",
      "outputs": [
        {
          "internalType": "string",
          "name": "",
          "type": "string"
        }
      ],
      "stateMutability": "view",
      "type": "function",
      "constant": true
    },
    {
      "inputs": [],
      "name": "symbol",
      "outputs": [
        {
          "internalType": "string",
          "name": "",
          "type": "string"
        }
      ],
      "stateMutability": "view",
      "type": "function",
      "constant": true
    }
  ],
  "bytecode": "0x608060405234801561001057600080fd5b506040518060400160405280600b81526020017f43727970746f42697264730000000000000000000000000000000000000000008152506040518060400160405280600681526020017f43424952445300000000000000000000000000000000000000000000000000008152508181816000908161008e91906102f8565b50806001908161009e91906102f8565b50505050506103ca565b600081519050919050565b7f4e487b7100000000000000000000000000000000000000000000000000000000600052604160045260246000fd5b7f4e487b7100000000000000000000000000000000000000000000000000000000600052602260045260246000fd5b6000600282049050600182168061012957607f821691505b60208210810361013c5761013b6100e2565b5b50919050565b60008190508160005260206000209050919050565b60006020601f8301049050919050565b600082821b905092915050565b6000600883026101a47fffffffffffffffffffffffffffffffffffffffffffffffffffffffffffffffff82610167565b6101ae8683610167565b95508019841693508086168417925050509392505050565b6000819050919050565b6000819050919050565b60006101f56101f06101eb846101c6565b6101d0565b6101c6565b9050919050565b6000819050919050565b61020f836101da565b61022361021b826101fc565b848454610174565b825550505050565b600090565b61023861022b565b610243818484610206565b505050565b5b818110156102675761025c600082610230565b600181019050610249565b5050565b601f8211156102ac5761027d81610142565b61028684610157565b81016020851015610295578190505b6102a96102a185610157565b830182610248565b50505b505050565b600082821c905092915050565b60006102cf600019846008026102b1565b1980831691505092915050565b60006102e883836102be565b9150826002028217905092915050565b610301826100a8565b67ffffffffffffffff81111561031a576103196100b3565b5b6103248254610111565b61032f82828561026b565b600060209050601f8311600181146103625760008415610350578287015190505b61035a85826102dc565b8655506103c2565b601f19841661037086610142565b60005b8281101561039857848901518255600182019150602085019450602081019050610373565b868310156103b557848901516103b1601f8916826102be565b8355505b6001600288020188555050505b505050505050565b6102e3806103d96000396000f3fe608060405234801561001057600080fd5b50600436106100365760003560e01c806306fdde031461003b57806395d89b4114610059575b600080fd5b610043610077565b604051610050919061022b565b60405180910390f35b610061610109565b60405161006e919061022b565b60405180910390f35b6060600080546100869061027c565b80601f01602080910402602001604051908101604052809291908181526020018280546100b29061027c565b80156100ff5780601f106100d4576101008083540402835291602001916100ff565b820191906000526020600020905b8154815290600101906020018083116100e257829003601f168201915b5050505050905090565b6060600180546101189061027c565b80601f01602080910402602001604051908101604052809291908181526020018280546101449061027c565b80156101915780601f1061016657610100808354040283529160200191610191565b820191906000526020600020905b81548152906001019060200180831161017457829003601f168201915b5050505050905090565b600081519050919050565b600082825260208201905092915050565b60005b838110156101d55780820151818401526020810190506101ba565b60008484015250505050565b6000601f19601f8301169050919050565b60006101fd8261019b565b61020781856101a6565b93506102178185602086016101b7565b610220816101e1565b840191505092915050565b6000602082019050818103600083015261024581846101f2565b905092915050565b7f4e487b7100000000000000000000000000000000000000000000000000000000600052602260045260246000fd5b6000600282049050600182168061029457607f821691505b6020821081036102a7576102a661024d565b5b5091905056fea26469706673582212209da1a0cde9e3712a50ba585934bb003d1b1c333cca3dd2859d1a631cd285da2864736f6c63430008110033",
  "immutableReferences": {},
  "source": "//SPDX-License-Identifier: MIT\npragma solidity ^0.8.17;\n\nimport \"./ERC721Connector.sol\";\n\ncontract CryptoBirds is ERC721Connector {\n    constructor() ERC721Connector('CryptoBirds', 'CBIRDS') {}\n}",
  "sourcePath": "/Users/m_kozhemiakin/Documents/Own projects/nft-market/contracts/CryptoBirds.sol",
  "compiler": {
    "name": "solc",
    "version": "0.8.17+commit.8df45f5f.Emscripten.clang"
  },
  "schemaVersion": "3.4.10",
  "updatedAt": "2022-10-09T09:48:37.369Z",
  "networkType": "ethereum",
  "devdoc": {
    "kind": "dev",
    "methods": {},
    "version": 1
  },
  "userdoc": {
    "kind": "user",
    "methods": {},
    "version": 1
  }
}