{
  "contractName": "CryptoBirds",
  "abi": [
    {
      "inputs": [],
      "stateMutability": "nonpayable",
      "type": "constructor"
    },
    {
      "anonymous": false,
      "inputs": [
        {
          "indexed": true,
          "internalType": "address",
          "name": "from",
          "type": "address"
        },
        {
          "indexed": true,
          "internalType": "address",
          "name": "to",
          "type": "address"
        },
        {
          "indexed": true,
          "internalType": "uint256",
          "name": "tokenId",
          "type": "uint256"
        }
      ],
      "name": "Transfer",
      "type": "event"
    },
    {
      "inputs": [
        {
          "internalType": "uint256",
          "name": "",
          "type": "uint256"
        }
      ],
      "name": "_cryptoBirds",
      "outputs": [
        {
          "internalType": "string",
          "name": "",
          "type": "string"
        }
      ],
      "stateMutability": "view",
      "type": "function",
      "constant": true
    },
    {
      "inputs": [],
      "name": "name",
      "outputs": [
        {
          "internalType": "string",
          "name": "",
          "type": "string"
        }
      ],
      "stateMutability": "view",
      "type": "function",
      "constant": true
    },
    {
      "inputs": [],
      "name": "symbol",
      "outputs": [
        {
          "internalType": "string",
          "name": "",
          "type": "string"
        }
      ],
      "stateMutability": "view",
      "type": "function",
      "constant": true
    },
    {
      "inputs": [
        {
          "internalType": "string",
          "name": "cryptoBird",
          "type": "string"
        }
      ],
      "name": "mint",
      "outputs": [],
      "stateMutability": "nonpayable",
      "type": "function"
    }
  ],
  "bytecode": "0x60806040523480156200001157600080fd5b506040518060400160405280600b81526020017f43727970746f42697264730000000000000000000000000000000000000000008152506040518060400160405280600681526020017f43424952445300000000000000000000000000000000000000000000000000008152508181816000908162000091919062000328565b508060019081620000a3919062000328565b50505050506200040f565b600081519050919050565b7f4e487b7100000000000000000000000000000000000000000000000000000000600052604160045260246000fd5b7f4e487b7100000000000000000000000000000000000000000000000000000000600052602260045260246000fd5b600060028204905060018216806200013057607f821691505b602082108103620001465762000145620000e8565b5b50919050565b60008190508160005260206000209050919050565b60006020601f8301049050919050565b600082821b905092915050565b600060088302620001b07fffffffffffffffffffffffffffffffffffffffffffffffffffffffffffffffff8262000171565b620001bc868362000171565b95508019841693508086168417925050509392505050565b6000819050919050565b6000819050919050565b60006200020962000203620001fd84620001d4565b620001de565b620001d4565b9050919050565b6000819050919050565b6200022583620001e8565b6200023d620002348262000210565b8484546200017e565b825550505050565b600090565b6200025462000245565b620002618184846200021a565b505050565b5b8181101562000289576200027d6000826200024a565b60018101905062000267565b5050565b601f821115620002d857620002a2816200014c565b620002ad8462000161565b81016020851015620002bd578190505b620002d5620002cc8562000161565b83018262000266565b50505b505050565b600082821c905092915050565b6000620002fd60001984600802620002dd565b1980831691505092915050565b6000620003188383620002ea565b9150826002028217905092915050565b6200033382620000ae565b67ffffffffffffffff8111156200034f576200034e620000b9565b5b6200035b825462000117565b620003688282856200028d565b600060209050601f831160018114620003a057600084156200038b578287015190505b6200039785826200030a565b86555062000407565b601f198416620003b0866200014c565b60005b82811015620003da57848901518255600182019150602085019450602081019050620003b3565b86831015620003fa5784890151620003f6601f891682620002ea565b8355505b6001600288020188555050505b505050505050565b610cc0806200041f6000396000f3fe608060405234801561001057600080fd5b506004361061004c5760003560e01c806306fdde03146100515780633f16fd761461006f57806395d89b411461009f578063d85d3d27146100bd575b600080fd5b6100596100d9565b60405161006691906105ad565b60405180910390f35b61008960048036038101906100849190610619565b61016b565b60405161009691906105ad565b60405180910390f35b6100a7610217565b6040516100b491906105ad565b60405180910390f35b6100d760048036038101906100d2919061077b565b6102a9565b005b6060600080546100e8906107f3565b80601f0160208091040260200160405190810160405280929190818152602001828054610114906107f3565b80156101615780601f1061013657610100808354040283529160200191610161565b820191906000526020600020905b81548152906001019060200180831161014457829003601f168201915b5050505050905090565b6004818154811061017b57600080fd5b906000526020600020016000915090508054610196906107f3565b80601f01602080910402602001604051908101604052809291908181526020018280546101c2906107f3565b801561020f5780601f106101e45761010080835404028352916020019161020f565b820191906000526020600020905b8154815290600101906020018083116101f257829003601f168201915b505050505081565b606060018054610226906107f3565b80601f0160208091040260200160405190810160405280929190818152602001828054610252906107f3565b801561029f5780601f106102745761010080835404028352916020019161029f565b820191906000526020600020905b81548152906001019060200180831161028257829003601f168201915b5050505050905090565b6005816040516102b99190610860565b908152602001604051809103902060009054906101000a900460ff1615610315576040517f08c379a000000000000000000000000000000000000000000000000000000000815260040161030c906108c3565b60405180910390fd5b6004819080600181540180825580915050600190039060005260206000200160009091909190915090816103499190610a8f565b506000600160048054905061035e9190610b90565b905061036a33826103a5565b600160058360405161037c9190610860565b908152602001604051809103902060006101000a81548160ff0219169083151502179055505050565b600073ffffffffffffffffffffffffffffffffffffffff168273ffffffffffffffffffffffffffffffffffffffff1603610414576040517f08c379a000000000000000000000000000000000000000000000000000000000815260040161040b90610c36565b60405180910390fd5b816002600083815260200190815260200160002060006101000a81548173ffffffffffffffffffffffffffffffffffffffff021916908373ffffffffffffffffffffffffffffffffffffffff1602179055506001600360008473ffffffffffffffffffffffffffffffffffffffff1673ffffffffffffffffffffffffffffffffffffffff16815260200190815260200160002060008282546104b69190610c56565b92505081905550808273ffffffffffffffffffffffffffffffffffffffff16600073ffffffffffffffffffffffffffffffffffffffff167fddf252ad1be2c89b69c2b068fc378daa952ba7f163c4a11628f55a4df523b3ef60405160405180910390a45050565b600081519050919050565b600082825260208201905092915050565b60005b8381101561055757808201518184015260208101905061053c565b60008484015250505050565b6000601f19601f8301169050919050565b600061057f8261051d565b6105898185610528565b9350610599818560208601610539565b6105a281610563565b840191505092915050565b600060208201905081810360008301526105c78184610574565b905092915050565b6000604051905090565b600080fd5b600080fd5b6000819050919050565b6105f6816105e3565b811461060157600080fd5b50565b600081359050610613816105ed565b92915050565b60006020828403121561062f5761062e6105d9565b5b600061063d84828501610604565b91505092915050565b600080fd5b600080fd5b7f4e487b7100000000000000000000000000000000000000000000000000000000600052604160045260246000fd5b61068882610563565b810181811067ffffffffffffffff821117156106a7576106a6610650565b5b80604052505050565b60006106ba6105cf565b90506106c6828261067f565b919050565b600067ffffffffffffffff8211156106e6576106e5610650565b5b6106ef82610563565b9050602081019050919050565b82818337600083830152505050565b600061071e610719846106cb565b6106b0565b90508281526020810184848401111561073a5761073961064b565b5b6107458482856106fc565b509392505050565b600082601f83011261076257610761610646565b5b813561077284826020860161070b565b91505092915050565b600060208284031215610791576107906105d9565b5b600082013567ffffffffffffffff8111156107af576107ae6105de565b5b6107bb8482850161074d565b91505092915050565b7f4e487b7100000000000000000000000000000000000000000000000000000000600052602260045260246000fd5b6000600282049050600182168061080b57607f821691505b60208210810361081e5761081d6107c4565b5b50919050565b600081905092915050565b600061083a8261051d565b6108448185610824565b9350610854818560208601610539565b80840191505092915050565b600061086c828461082f565b915081905092915050565b7f43727970746f4269726420697320616c7265616479206d696e74656421000000600082015250565b60006108ad601d83610528565b91506108b882610877565b602082019050919050565b600060208201905081810360008301526108dc816108a0565b9050919050565b60008190508160005260206000209050919050565b60006020601f8301049050919050565b600082821b905092915050565b6000600883026109457fffffffffffffffffffffffffffffffffffffffffffffffffffffffffffffffff82610908565b61094f8683610908565b95508019841693508086168417925050509392505050565b6000819050919050565b600061098c610987610982846105e3565b610967565b6105e3565b9050919050565b6000819050919050565b6109a683610971565b6109ba6109b282610993565b848454610915565b825550505050565b600090565b6109cf6109c2565b6109da81848461099d565b505050565b5b818110156109fe576109f36000826109c7565b6001810190506109e0565b5050565b601f821115610a4357610a14816108e3565b610a1d846108f8565b81016020851015610a2c578190505b610a40610a38856108f8565b8301826109df565b50505b505050565b600082821c905092915050565b6000610a6660001984600802610a48565b1980831691505092915050565b6000610a7f8383610a55565b9150826002028217905092915050565b610a988261051d565b67ffffffffffffffff811115610ab157610ab0610650565b5b610abb82546107f3565b610ac6828285610a02565b600060209050601f831160018114610af95760008415610ae7578287015190505b610af18582610a73565b865550610b59565b601f198416610b07866108e3565b60005b82811015610b2f57848901518255600182019150602085019450602081019050610b0a565b86831015610b4c5784890151610b48601f891682610a55565b8355505b6001600288020188555050505b505050505050565b7f4e487b7100000000000000000000000000000000000000000000000000000000600052601160045260246000fd5b6000610b9b826105e3565b9150610ba6836105e3565b9250828203905081811115610bbe57610bbd610b61565b5b92915050565b7f455243373231206d757374206265206d696e74656420746f206e6f6e207a657260008201527f6f20616464726573730000000000000000000000000000000000000000000000602082015250565b6000610c20602983610528565b9150610c2b82610bc4565b604082019050919050565b60006020820190508181036000830152610c4f81610c13565b9050919050565b6000610c61826105e3565b9150610c6c836105e3565b9250828201905080821115610c8457610c83610b61565b5b9291505056fea26469706673582212204fc9e59c77159674887900e0d285d3a04388217b1ece4669e1d671a48f16561864736f6c63430008110033",
  "immutableReferences": {},
  "source": "//SPDX-License-Identifier: MIT\npragma solidity ^0.8.17;\n\nimport \"./ERC721Connector.sol\";\n\ncontract CryptoBirds is ERC721Connector {\n    constructor() ERC721Connector('CryptoBirds', 'CBIRDS') {}\n\n    string[] public _cryptoBirds;\n    mapping (string => bool) _cryptoBirdMinted;\n\n    function mint(string memory cryptoBird) public {\n        require(!_cryptoBirdMinted[cryptoBird], 'CryptoBird is already minted!');\n\n        _cryptoBirds.push(cryptoBird);\n        uint id = _cryptoBirds.length - 1;\n        _mint(msg.sender, id);\n        _cryptoBirdMinted[cryptoBird] = true;\n    }\n}",
  "sourcePath": "/Users/m_kozhemiakin/Documents/Own projects/nft-market/contracts/CryptoBirds.sol",
  "compiler": {
    "name": "solc",
    "version": "0.8.17+commit.8df45f5f.Emscripten.clang"
  },
  "schemaVersion": "3.4.10",
  "updatedAt": "2022-10-26T16:47:44.529Z",
  "networkType": "ethereum",
  "devdoc": {
    "kind": "dev",
    "methods": {},
    "version": 1
  },
  "userdoc": {
    "kind": "user",
    "methods": {},
    "version": 1
  }
}