{
  "contractName": "CryptoBirds",
  "abi": [
    {
      "inputs": [],
      "stateMutability": "nonpayable",
      "type": "constructor"
    },
    {
      "anonymous": false,
      "inputs": [
        {
          "indexed": true,
          "internalType": "address",
          "name": "owner",
          "type": "address"
        },
        {
          "indexed": true,
          "internalType": "address",
          "name": "approved",
          "type": "address"
        },
        {
          "indexed": true,
          "internalType": "uint256",
          "name": "tokenId",
          "type": "uint256"
        }
      ],
      "name": "Approval",
      "type": "event"
    },
    {
      "anonymous": false,
      "inputs": [
        {
          "indexed": true,
          "internalType": "address",
          "name": "from",
          "type": "address"
        },
        {
          "indexed": true,
          "internalType": "address",
          "name": "to",
          "type": "address"
        },
        {
          "indexed": true,
          "internalType": "uint256",
          "name": "tokenId",
          "type": "uint256"
        }
      ],
      "name": "Transfer",
      "type": "event"
    },
    {
      "inputs": [
        {
          "internalType": "uint256",
          "name": "",
          "type": "uint256"
        }
      ],
      "name": "_cryptoBirds",
      "outputs": [
        {
          "internalType": "string",
          "name": "",
          "type": "string"
        }
      ],
      "stateMutability": "view",
      "type": "function",
      "constant": true
    },
    {
      "inputs": [
        {
          "internalType": "address",
          "name": "_to",
          "type": "address"
        },
        {
          "internalType": "uint256",
          "name": "_tokenId",
          "type": "uint256"
        }
      ],
      "name": "approve",
      "outputs": [],
      "stateMutability": "nonpayable",
      "type": "function"
    },
    {
      "inputs": [
        {
          "internalType": "address",
          "name": "_owner",
          "type": "address"
        }
      ],
      "name": "balanceOf",
      "outputs": [
        {
          "internalType": "uint256",
          "name": "",
          "type": "uint256"
        }
      ],
      "stateMutability": "view",
      "type": "function",
      "constant": true
    },
    {
      "inputs": [
        {
          "internalType": "address",
          "name": "owner",
          "type": "address"
        },
        {
          "internalType": "uint256",
          "name": "index",
          "type": "uint256"
        }
      ],
      "name": "getTokenByAddressAndIndex",
      "outputs": [
        {
          "internalType": "uint256",
          "name": "",
          "type": "uint256"
        }
      ],
      "stateMutability": "view",
      "type": "function",
      "constant": true
    },
    {
      "inputs": [
        {
          "internalType": "uint256",
          "name": "index",
          "type": "uint256"
        }
      ],
      "name": "getTokenByIndex",
      "outputs": [
        {
          "internalType": "uint256",
          "name": "",
          "type": "uint256"
        }
      ],
      "stateMutability": "view",
      "type": "function",
      "constant": true
    },
    {
      "inputs": [],
      "name": "name",
      "outputs": [
        {
          "internalType": "string",
          "name": "",
          "type": "string"
        }
      ],
      "stateMutability": "view",
      "type": "function",
      "constant": true
    },
    {
      "inputs": [
        {
          "internalType": "uint256",
          "name": "_tokenId",
          "type": "uint256"
        }
      ],
      "name": "ownerOf",
      "outputs": [
        {
          "internalType": "address",
          "name": "",
          "type": "address"
        }
      ],
      "stateMutability": "view",
      "type": "function",
      "constant": true
    },
    {
      "inputs": [
        {
          "internalType": "bytes4",
          "name": "interfaceId",
          "type": "bytes4"
        }
      ],
      "name": "supportsInterface",
      "outputs": [
        {
          "internalType": "bool",
          "name": "",
          "type": "bool"
        }
      ],
      "stateMutability": "view",
      "type": "function",
      "constant": true
    },
    {
      "inputs": [],
      "name": "symbol",
      "outputs": [
        {
          "internalType": "string",
          "name": "",
          "type": "string"
        }
      ],
      "stateMutability": "view",
      "type": "function",
      "constant": true
    },
    {
      "inputs": [],
      "name": "totalSupply",
      "outputs": [
        {
          "internalType": "uint256",
          "name": "",
          "type": "uint256"
        }
      ],
      "stateMutability": "view",
      "type": "function",
      "constant": true
    },
    {
      "inputs": [
        {
          "internalType": "address",
          "name": "_from",
          "type": "address"
        },
        {
          "internalType": "address",
          "name": "_to",
          "type": "address"
        },
        {
          "internalType": "uint256",
          "name": "_tokenId",
          "type": "uint256"
        }
      ],
      "name": "transferFrom",
      "outputs": [],
      "stateMutability": "nonpayable",
      "type": "function"
    },
    {
      "inputs": [
        {
          "internalType": "string",
          "name": "cryptoBird",
          "type": "string"
        }
      ],
      "name": "mint",
      "outputs": [],
      "stateMutability": "nonpayable",
      "type": "function"
    }
  ],
  "bytecode": "0x60806040523480156200001157600080fd5b506040518060400160405280600b81526020017f43727970746f42697264730000000000000000000000000000000000000000008152506040518060400160405280600681526020017f43424952445300000000000000000000000000000000000000000000000000008152508181816000908162000091919062000431565b508060019081620000a3919062000431565b505050620000d77f01ffc9a7a5cef8baa21ed3c5c0d7e23accb804b619e9333b597f47a0d84076e2620000df60201b60201c565b50506200059b565b63ffffffff60e01b817bffffffffffffffffffffffffffffffffffffffffffffffffffffffff1916036200014a576040517f08c379a0000000000000000000000000000000000000000000000000000000008152600401620001419062000579565b60405180910390fd5b600160026000837bffffffffffffffffffffffffffffffffffffffffffffffffffffffff19167bffffffffffffffffffffffffffffffffffffffffffffffffffffffff1916815260200190815260200160002060006101000a81548160ff02191690831515021790555050565b600081519050919050565b7f4e487b7100000000000000000000000000000000000000000000000000000000600052604160045260246000fd5b7f4e487b7100000000000000000000000000000000000000000000000000000000600052602260045260246000fd5b600060028204905060018216806200023957607f821691505b6020821081036200024f576200024e620001f1565b5b50919050565b60008190508160005260206000209050919050565b60006020601f8301049050919050565b600082821b905092915050565b600060088302620002b97fffffffffffffffffffffffffffffffffffffffffffffffffffffffffffffffff826200027a565b620002c586836200027a565b95508019841693508086168417925050509392505050565b6000819050919050565b6000819050919050565b6000620003126200030c6200030684620002dd565b620002e7565b620002dd565b9050919050565b6000819050919050565b6200032e83620002f1565b620003466200033d8262000319565b84845462000287565b825550505050565b600090565b6200035d6200034e565b6200036a81848462000323565b505050565b5b8181101562000392576200038660008262000353565b60018101905062000370565b5050565b601f821115620003e157620003ab8162000255565b620003b6846200026a565b81016020851015620003c6578190505b620003de620003d5856200026a565b8301826200036f565b50505b505050565b600082821c905092915050565b60006200040660001984600802620003e6565b1980831691505092915050565b6000620004218383620003f3565b9150826002028217905092915050565b6200043c82620001b7565b67ffffffffffffffff811115620004585762000457620001c2565b5b62000464825462000220565b6200047182828562000396565b600060209050601f831160018114620004a9576000841562000494578287015190505b620004a0858262000413565b86555062000510565b601f198416620004b98662000255565b60005b82811015620004e357848901518255600182019150602085019450602081019050620004bc565b86831015620005035784890151620004ff601f891682620003f3565b8355505b6001600288020188555050505b505050505050565b600082825260208201905092915050565b7f496e76616c696420696e74657266616365207265717565737400000000000000600082015250565b60006200056160198362000518565b91506200056e8262000529565b602082019050919050565b60006020820190508181036000830152620005948162000552565b9050919050565b611f5f80620005ab6000396000f3fe608060405234801561001057600080fd5b50600436106100b45760003560e01c80636352211e116100715780636352211e1461018d578063644b7a43146101bd57806370a08231146101ed57806395d89b411461021d578063d85d3d271461023b578063efafa77b14610257576100b4565b806301ffc9a7146100b957806306fdde03146100e9578063095ea7b31461010757806318160ddd1461012357806323b872dd146101415780633f16fd761461015d575b600080fd5b6100d360048036038101906100ce91906110b0565b610287565b6040516100e091906110f8565b60405180910390f35b6100f16102ef565b6040516100fe91906111a3565b60405180910390f35b610121600480360381019061011c9190611259565b610381565b005b61012b61051c565b60405161013891906112a8565b60405180910390f35b61015b600480360381019061015691906112c3565b610529565b005b61017760048036038101906101729190611316565b61054c565b60405161018491906111a3565b60405180910390f35b6101a760048036038101906101a29190611316565b6105f8565b6040516101b49190611352565b60405180910390f35b6101d760048036038101906101d29190611316565b6106a9565b6040516101e491906112a8565b60405180910390f35b6102076004803603810190610202919061136d565b61071a565b60405161021491906112a8565b60405180910390f35b6102256107d1565b60405161023291906111a3565b60405180910390f35b610255600480360381019061025091906114cf565b610863565b005b610271600480360381019061026c9190611259565b61095f565b60405161027e91906112a8565b60405180910390f35b600060026000837bffffffffffffffffffffffffffffffffffffffffffffffffffffffff19167bffffffffffffffffffffffffffffffffffffffffffffffffffffffff1916815260200190815260200160002060009054906101000a900460ff169050919050565b6060600080546102fe90611547565b80601f016020809104026020016040519081016040528092919081815260200182805461032a90611547565b80156103775780601f1061034c57610100808354040283529160200191610377565b820191906000526020600020905b81548152906001019060200180831161035a57829003601f168201915b5050505050905090565b600061038c826105f8565b90508073ffffffffffffffffffffffffffffffffffffffff168373ffffffffffffffffffffffffffffffffffffffff16036103fc576040517f08c379a00000000000000000000000000000000000000000000000000000000081526004016103f3906115ea565b60405180910390fd5b8073ffffffffffffffffffffffffffffffffffffffff163373ffffffffffffffffffffffffffffffffffffffff161461046a576040517f08c379a00000000000000000000000000000000000000000000000000000000081526004016104619061167c565b60405180910390fd5b826005600084815260200190815260200160002060006101000a81548173ffffffffffffffffffffffffffffffffffffffff021916908373ffffffffffffffffffffffffffffffffffffffff160217905550818373ffffffffffffffffffffffffffffffffffffffff168273ffffffffffffffffffffffffffffffffffffffff167f8c5be1e5ebec7d5bd14f71427d1e84f3dd0314c0f7b2291e5b200ac8c7c3b92560405160405180910390a4505050565b6000600680549050905090565b6105333382610a0f565b61053c57600080fd5b610547838383610a9e565b505050565b600a818154811061055c57600080fd5b90600052602060002001600091509050805461057790611547565b80601f01602080910402602001604051908101604052809291908181526020018280546105a390611547565b80156105f05780601f106105c5576101008083540402835291602001916105f0565b820191906000526020600020905b8154815290600101906020018083116105d357829003601f168201915b505050505081565b6000806003600084815260200190815260200160002060009054906101000a900473ffffffffffffffffffffffffffffffffffffffff169050600073ffffffffffffffffffffffffffffffffffffffff168173ffffffffffffffffffffffffffffffffffffffff16036106a0576040517f08c379a0000000000000000000000000000000000000000000000000000000008152600401610697906116e8565b60405180910390fd5b80915050919050565b60006106b361051c565b82106106f4576040517f08c379a00000000000000000000000000000000000000000000000000000000081526004016106eb9061177a565b60405180910390fd5b600682815481106107085761070761179a565b5b90600052602060002001549050919050565b60008073ffffffffffffffffffffffffffffffffffffffff168273ffffffffffffffffffffffffffffffffffffffff160361078a576040517f08c379a000000000000000000000000000000000000000000000000000000000815260040161078190611815565b60405180910390fd5b600460008373ffffffffffffffffffffffffffffffffffffffff1673ffffffffffffffffffffffffffffffffffffffff168152602001908152602001600020549050919050565b6060600180546107e090611547565b80601f016020809104026020016040519081016040528092919081815260200182805461080c90611547565b80156108595780601f1061082e57610100808354040283529160200191610859565b820191906000526020600020905b81548152906001019060200180831161083c57829003601f168201915b5050505050905090565b600b816040516108739190611871565b908152602001604051809103902060009054906101000a900460ff16156108cf576040517f08c379a00000000000000000000000000000000000000000000000000000000081526004016108c6906118d4565b60405180910390fd5b600a819080600181540180825580915050600190039060005260206000200160009091909190915090816109039190611aa0565b5060006001600a805490506109189190611ba1565b90506109243382610ce3565b6001600b836040516109369190611871565b908152602001604051809103902060006101000a81548160ff0219169083151502179055505050565b600061096a8361071a565b82106109ab576040517f08c379a00000000000000000000000000000000000000000000000000000000081526004016109a290611c47565b60405180910390fd5b600860008473ffffffffffffffffffffffffffffffffffffffff1673ffffffffffffffffffffffffffffffffffffffff16815260200190815260200160002082815481106109fc576109fb61179a565b5b9060005260206000200154905092915050565b6000610a1a82610d04565b610a59576040517f08c379a0000000000000000000000000000000000000000000000000000000008152600401610a5090611cb3565b60405180910390fd5b6000610a64836105f8565b90508073ffffffffffffffffffffffffffffffffffffffff168473ffffffffffffffffffffffffffffffffffffffff161491505092915050565b600073ffffffffffffffffffffffffffffffffffffffff168273ffffffffffffffffffffffffffffffffffffffff1603610b0d576040517f08c379a0000000000000000000000000000000000000000000000000000000008152600401610b0490611d45565b60405180910390fd5b8273ffffffffffffffffffffffffffffffffffffffff16610b2d826105f8565b73ffffffffffffffffffffffffffffffffffffffff1614610b83576040517f08c379a0000000000000000000000000000000000000000000000000000000008152600401610b7a90611dd7565b60405180910390fd5b6001600460008573ffffffffffffffffffffffffffffffffffffffff1673ffffffffffffffffffffffffffffffffffffffff1681526020019081526020016000206000828254610bd39190611ba1565b925050819055506001600460008473ffffffffffffffffffffffffffffffffffffffff1673ffffffffffffffffffffffffffffffffffffffff1681526020019081526020016000206000828254610c2a9190611df7565b92505081905550816003600083815260200190815260200160002060006101000a81548173ffffffffffffffffffffffffffffffffffffffff021916908373ffffffffffffffffffffffffffffffffffffffff160217905550808273ffffffffffffffffffffffffffffffffffffffff168473ffffffffffffffffffffffffffffffffffffffff167fddf252ad1be2c89b69c2b068fc378daa952ba7f163c4a11628f55a4df523b3ef60405160405180910390a4505050565b610ced8282610d76565b610cf681610f37565b610d008282610f80565b5050565b6000806003600084815260200190815260200160002060009054906101000a900473ffffffffffffffffffffffffffffffffffffffff169050600073ffffffffffffffffffffffffffffffffffffffff168173ffffffffffffffffffffffffffffffffffffffff161415915050919050565b600073ffffffffffffffffffffffffffffffffffffffff168273ffffffffffffffffffffffffffffffffffffffff1603610de5576040517f08c379a0000000000000000000000000000000000000000000000000000000008152600401610ddc90611e9d565b60405180910390fd5b610dee81610d04565b15610e2e576040517f08c379a0000000000000000000000000000000000000000000000000000000008152600401610e2590611f09565b60405180910390fd5b816003600083815260200190815260200160002060006101000a81548173ffffffffffffffffffffffffffffffffffffffff021916908373ffffffffffffffffffffffffffffffffffffffff1602179055506001600460008473ffffffffffffffffffffffffffffffffffffffff1673ffffffffffffffffffffffffffffffffffffffff1681526020019081526020016000206000828254610ed09190611df7565b92505081905550808273ffffffffffffffffffffffffffffffffffffffff16600073ffffffffffffffffffffffffffffffffffffffff167fddf252ad1be2c89b69c2b068fc378daa952ba7f163c4a11628f55a4df523b3ef60405160405180910390a45050565b6006805490506007600083815260200190815260200160002081905550600681908060018154018082558091505060019003906000526020600020016000909190919091505550565b600860008373ffffffffffffffffffffffffffffffffffffffff1673ffffffffffffffffffffffffffffffffffffffff168152602001908152602001600020805490506009600083815260200190815260200160002081905550600860008373ffffffffffffffffffffffffffffffffffffffff1673ffffffffffffffffffffffffffffffffffffffff1681526020019081526020016000208190806001815401808255809150506001900390600052602060002001600090919091909150555050565b6000604051905090565b600080fd5b600080fd5b60007fffffffff0000000000000000000000000000000000000000000000000000000082169050919050565b61108d81611058565b811461109857600080fd5b50565b6000813590506110aa81611084565b92915050565b6000602082840312156110c6576110c561104e565b5b60006110d48482850161109b565b91505092915050565b60008115159050919050565b6110f2816110dd565b82525050565b600060208201905061110d60008301846110e9565b92915050565b600081519050919050565b600082825260208201905092915050565b60005b8381101561114d578082015181840152602081019050611132565b60008484015250505050565b6000601f19601f8301169050919050565b600061117582611113565b61117f818561111e565b935061118f81856020860161112f565b61119881611159565b840191505092915050565b600060208201905081810360008301526111bd818461116a565b905092915050565b600073ffffffffffffffffffffffffffffffffffffffff82169050919050565b60006111f0826111c5565b9050919050565b611200816111e5565b811461120b57600080fd5b50565b60008135905061121d816111f7565b92915050565b6000819050919050565b61123681611223565b811461124157600080fd5b50565b6000813590506112538161122d565b92915050565b600080604083850312156112705761126f61104e565b5b600061127e8582860161120e565b925050602061128f85828601611244565b9150509250929050565b6112a281611223565b82525050565b60006020820190506112bd6000830184611299565b92915050565b6000806000606084860312156112dc576112db61104e565b5b60006112ea8682870161120e565b93505060206112fb8682870161120e565b925050604061130c86828701611244565b9150509250925092565b60006020828403121561132c5761132b61104e565b5b600061133a84828501611244565b91505092915050565b61134c816111e5565b82525050565b60006020820190506113676000830184611343565b92915050565b6000602082840312156113835761138261104e565b5b60006113918482850161120e565b91505092915050565b600080fd5b600080fd5b7f4e487b7100000000000000000000000000000000000000000000000000000000600052604160045260246000fd5b6113dc82611159565b810181811067ffffffffffffffff821117156113fb576113fa6113a4565b5b80604052505050565b600061140e611044565b905061141a82826113d3565b919050565b600067ffffffffffffffff82111561143a576114396113a4565b5b61144382611159565b9050602081019050919050565b82818337600083830152505050565b600061147261146d8461141f565b611404565b90508281526020810184848401111561148e5761148d61139f565b5b611499848285611450565b509392505050565b600082601f8301126114b6576114b561139a565b5b81356114c684826020860161145f565b91505092915050565b6000602082840312156114e5576114e461104e565b5b600082013567ffffffffffffffff81111561150357611502611053565b5b61150f848285016114a1565b91505092915050565b7f4e487b7100000000000000000000000000000000000000000000000000000000600052602260045260246000fd5b6000600282049050600182168061155f57607f821691505b60208210810361157257611571611518565b5b50919050565b7f4572726f72202d20617070726f76616c20666f722063757272656e74206f776e60008201527f6572000000000000000000000000000000000000000000000000000000000000602082015250565b60006115d460228361111e565b91506115df82611578565b604082019050919050565b60006020820190508181036000830152611603816115c7565b9050919050565b7f43757272656e742063616c6c6572206973206e6f7420746865206f776e65722060008201527f6f662074686520746f6b656e0000000000000000000000000000000000000000602082015250565b6000611666602c8361111e565b91506116718261160a565b604082019050919050565b6000602082019050818103600083015261169581611659565b9050919050565b7f6f6e77657220717565727920666f72206e6f6e2d657869737420746f6b656e00600082015250565b60006116d2601f8361111e565b91506116dd8261169c565b602082019050919050565b60006020820190508181036000830152611701816116c5565b9050919050565b7f546f6b656e2061742074686520676976656e20696e64657820646f65736e277460008201527f2065786973740000000000000000000000000000000000000000000000000000602082015250565b600061176460268361111e565b915061176f82611708565b604082019050919050565b6000602082019050818103600083015261179381611757565b9050919050565b7f4e487b7100000000000000000000000000000000000000000000000000000000600052603260045260246000fd5b7f6f776e657220717565727920666f72206e6f6e2d657869737420746f6b656e00600082015250565b60006117ff601f8361111e565b915061180a826117c9565b602082019050919050565b6000602082019050818103600083015261182e816117f2565b9050919050565b600081905092915050565b600061184b82611113565b6118558185611835565b935061186581856020860161112f565b80840191505092915050565b600061187d8284611840565b915081905092915050565b7f43727970746f4269726420697320616c7265616479206d696e74656421000000600082015250565b60006118be601d8361111e565b91506118c982611888565b602082019050919050565b600060208201905081810360008301526118ed816118b1565b9050919050565b60008190508160005260206000209050919050565b60006020601f8301049050919050565b600082821b905092915050565b6000600883026119567fffffffffffffffffffffffffffffffffffffffffffffffffffffffffffffffff82611919565b6119608683611919565b95508019841693508086168417925050509392505050565b6000819050919050565b600061199d61199861199384611223565b611978565b611223565b9050919050565b6000819050919050565b6119b783611982565b6119cb6119c3826119a4565b848454611926565b825550505050565b600090565b6119e06119d3565b6119eb8184846119ae565b505050565b5b81811015611a0f57611a046000826119d8565b6001810190506119f1565b5050565b601f821115611a5457611a25816118f4565b611a2e84611909565b81016020851015611a3d578190505b611a51611a4985611909565b8301826119f0565b50505b505050565b600082821c905092915050565b6000611a7760001984600802611a59565b1980831691505092915050565b6000611a908383611a66565b9150826002028217905092915050565b611aa982611113565b67ffffffffffffffff811115611ac257611ac16113a4565b5b611acc8254611547565b611ad7828285611a13565b600060209050601f831160018114611b0a5760008415611af8578287015190505b611b028582611a84565b865550611b6a565b601f198416611b18866118f4565b60005b82811015611b4057848901518255600182019150602085019450602081019050611b1b565b86831015611b5d5784890151611b59601f891682611a66565b8355505b6001600288020188555050505b505050505050565b7f4e487b7100000000000000000000000000000000000000000000000000000000600052601160045260246000fd5b6000611bac82611223565b9150611bb783611223565b9250828203905081811115611bcf57611bce611b72565b5b92915050565b7f546f6b656e2061742074686520676976656e20696e646578206f66207468652060008201527f676976656e207573657220646f65736e27742065786973740000000000000000602082015250565b6000611c3160388361111e565b9150611c3c82611bd5565b604082019050919050565b60006020820190508181036000830152611c6081611c24565b9050919050565b7f546f6b656e20646f65736e742065786973740000000000000000000000000000600082015250565b6000611c9d60128361111e565b9150611ca882611c67565b602082019050919050565b60006020820190508181036000830152611ccc81611c90565b9050919050565b7f4572726f72202d20547279696e6720746f207472616e7366657220746f6b656e60008201527f20746f207a65726f206164647265737300000000000000000000000000000000602082015250565b6000611d2f60308361111e565b9150611d3a82611cd3565b604082019050919050565b60006020820190508181036000830152611d5e81611d22565b9050919050565b7f4572726f72202d20747279696e6720746f2073656e64206e6f6e2d657869737460008201527f696e6720746f6b656e20666f722063757272656e742061646472657373000000602082015250565b6000611dc1603d8361111e565b9150611dcc82611d65565b604082019050919050565b60006020820190508181036000830152611df081611db4565b9050919050565b6000611e0282611223565b9150611e0d83611223565b9250828201905080821115611e2557611e24611b72565b5b92915050565b7f455243373231206d757374206265206d696e74656420746f206e6f6e207a657260008201527f6f20616464726573730000000000000000000000000000000000000000000000602082015250565b6000611e8760298361111e565b9150611e9282611e2b565b604082019050919050565b60006020820190508181036000830152611eb681611e7a565b9050919050565b7f546f6b656e20616c7265616479206265656e206d696e74656400000000000000600082015250565b6000611ef360198361111e565b9150611efe82611ebd565b602082019050919050565b60006020820190508181036000830152611f2281611ee6565b905091905056fea26469706673582212201325c84aded04b0cf3b3468791a9f77dc091e9c9c05061da96fcd607b6f3fdb264736f6c63430008110033",
  "immutableReferences": {},
  "source": "//SPDX-License-Identifier: MIT\npragma solidity ^0.8.17;\n\nimport \"./ERC721Connector.sol\";\n\ncontract CryptoBirds is ERC721Connector {\n    constructor() ERC721Connector('CryptoBirds', 'CBIRDS') {}\n\n    string[] public _cryptoBirds;\n    mapping (string => bool) _cryptoBirdMinted;\n\n    function mint(string memory cryptoBird) public {\n        require(!_cryptoBirdMinted[cryptoBird], 'CryptoBird is already minted!');\n\n        _cryptoBirds.push(cryptoBird);\n        uint id = _cryptoBirds.length - 1;\n        _mint(msg.sender, id);\n        _cryptoBirdMinted[cryptoBird] = true;\n    }\n}",
  "sourcePath": "/Users/m_kozhemiakin/Documents/Own projects/nft-market/contracts/CryptoBirds.sol",
  "compiler": {
    "name": "solc",
    "version": "0.8.17+commit.8df45f5f.Emscripten.clang"
  },
  "schemaVersion": "3.4.10",
  "updatedAt": "2022-11-12T13:02:25.355Z",
  "networkType": "ethereum",
  "devdoc": {
    "kind": "dev",
    "methods": {},
    "version": 1
  },
  "userdoc": {
    "kind": "user",
    "methods": {},
    "version": 1
  }
}