{
  "contractName": "CryptoBirds",
  "abi": [
    {
      "inputs": [],
      "stateMutability": "nonpayable",
      "type": "constructor"
    },
    {
      "anonymous": false,
      "inputs": [
        {
          "indexed": true,
          "internalType": "address",
          "name": "owner",
          "type": "address"
        },
        {
          "indexed": true,
          "internalType": "address",
          "name": "approved",
          "type": "address"
        },
        {
          "indexed": true,
          "internalType": "uint256",
          "name": "tokenId",
          "type": "uint256"
        }
      ],
      "name": "Approval",
      "type": "event"
    },
    {
      "anonymous": false,
      "inputs": [
        {
          "indexed": true,
          "internalType": "address",
          "name": "from",
          "type": "address"
        },
        {
          "indexed": true,
          "internalType": "address",
          "name": "to",
          "type": "address"
        },
        {
          "indexed": true,
          "internalType": "uint256",
          "name": "tokenId",
          "type": "uint256"
        }
      ],
      "name": "Transfer",
      "type": "event"
    },
    {
      "inputs": [
        {
          "internalType": "uint256",
          "name": "",
          "type": "uint256"
        }
      ],
      "name": "_cryptoBirds",
      "outputs": [
        {
          "internalType": "string",
          "name": "",
          "type": "string"
        }
      ],
      "stateMutability": "view",
      "type": "function",
      "constant": true
    },
    {
      "inputs": [
        {
          "internalType": "address",
          "name": "_to",
          "type": "address"
        },
        {
          "internalType": "uint256",
          "name": "_tokenId",
          "type": "uint256"
        }
      ],
      "name": "approve",
      "outputs": [],
      "stateMutability": "nonpayable",
      "type": "function"
    },
    {
      "inputs": [
        {
          "internalType": "address",
          "name": "_owner",
          "type": "address"
        }
      ],
      "name": "balanceOf",
      "outputs": [
        {
          "internalType": "uint256",
          "name": "",
          "type": "uint256"
        }
      ],
      "stateMutability": "view",
      "type": "function",
      "constant": true
    },
    {
      "inputs": [],
      "name": "name",
      "outputs": [
        {
          "internalType": "string",
          "name": "",
          "type": "string"
        }
      ],
      "stateMutability": "view",
      "type": "function",
      "constant": true
    },
    {
      "inputs": [
        {
          "internalType": "uint256",
          "name": "_tokenId",
          "type": "uint256"
        }
      ],
      "name": "ownerOf",
      "outputs": [
        {
          "internalType": "address",
          "name": "",
          "type": "address"
        }
      ],
      "stateMutability": "view",
      "type": "function",
      "constant": true
    },
    {
      "inputs": [
        {
          "internalType": "bytes4",
          "name": "interfaceId",
          "type": "bytes4"
        }
      ],
      "name": "supportsInterface",
      "outputs": [
        {
          "internalType": "bool",
          "name": "",
          "type": "bool"
        }
      ],
      "stateMutability": "view",
      "type": "function",
      "constant": true
    },
    {
      "inputs": [],
      "name": "symbol",
      "outputs": [
        {
          "internalType": "string",
          "name": "",
          "type": "string"
        }
      ],
      "stateMutability": "view",
      "type": "function",
      "constant": true
    },
    {
      "inputs": [
        {
          "internalType": "uint256",
          "name": "index",
          "type": "uint256"
        }
      ],
      "name": "tokenByIndex",
      "outputs": [
        {
          "internalType": "uint256",
          "name": "",
          "type": "uint256"
        }
      ],
      "stateMutability": "view",
      "type": "function",
      "constant": true
    },
    {
      "inputs": [
        {
          "internalType": "address",
          "name": "owner",
          "type": "address"
        },
        {
          "internalType": "uint256",
          "name": "index",
          "type": "uint256"
        }
      ],
      "name": "tokenOfOwnerByIndex",
      "outputs": [
        {
          "internalType": "uint256",
          "name": "",
          "type": "uint256"
        }
      ],
      "stateMutability": "view",
      "type": "function",
      "constant": true
    },
    {
      "inputs": [],
      "name": "totalSupply",
      "outputs": [
        {
          "internalType": "uint256",
          "name": "",
          "type": "uint256"
        }
      ],
      "stateMutability": "view",
      "type": "function",
      "constant": true
    },
    {
      "inputs": [
        {
          "internalType": "address",
          "name": "_from",
          "type": "address"
        },
        {
          "internalType": "address",
          "name": "_to",
          "type": "address"
        },
        {
          "internalType": "uint256",
          "name": "_tokenId",
          "type": "uint256"
        }
      ],
      "name": "transferFrom",
      "outputs": [],
      "stateMutability": "nonpayable",
      "type": "function"
    },
    {
      "inputs": [
        {
          "internalType": "string",
          "name": "cryptoBird",
          "type": "string"
        }
      ],
      "name": "mint",
      "outputs": [],
      "stateMutability": "nonpayable",
      "type": "function"
    }
  ],
  "bytecode": "0x60806040523480156200001157600080fd5b506040518060400160405280600b81526020017f43727970746f42697264730000000000000000000000000000000000000000008152506040518060400160405280600681526020017f43424952445300000000000000000000000000000000000000000000000000008152508181620000d37f6da5e1284143cdd2d15038a59bde3be031250f00291d64494c12d967b3a4e0c37fc53637662700e6c65104059db8bba34439e0c32483ab7c34e3ccae52c739549518620001eb60201b60201c565b8160019081620000e491906200053c565b508060029081620000f691906200053c565b5050506200016e7f22c82707ba960a14c7592ffb6b8cfaa073fed0048a84cc7fa41f6b5bd8e7f2e47f3a6eb71757dfc6e784c1459d26270140c2c147d95ca985c80026fc5301c3eca17f8a7e378434598edc36d108689a030cbc9d7d465de4f74c71bae1028eed6a881b1818620001eb60201b60201c565b620001e37f8230223f691b981717299fae9549350a0d894555723531f02108b1f522c1a7977f6da5e1284143cdd2d15038a59bde3be031250f00291d64494c12d967b3a4e0c37fc53637662700e6c65104059db8bba34439e0c32483ab7c34e3ccae52c73954951818620001eb60201b60201c565b5050620006a6565b63ffffffff60e01b817bffffffffffffffffffffffffffffffffffffffffffffffffffffffff19160362000256576040517f08c379a00000000000000000000000000000000000000000000000000000000081526004016200024d9062000684565b60405180910390fd5b6001600080837bffffffffffffffffffffffffffffffffffffffffffffffffffffffff19167bffffffffffffffffffffffffffffffffffffffffffffffffffffffff1916815260200190815260200160002060006101000a81548160ff02191690831515021790555050565b600081519050919050565b7f4e487b7100000000000000000000000000000000000000000000000000000000600052604160045260246000fd5b7f4e487b7100000000000000000000000000000000000000000000000000000000600052602260045260246000fd5b600060028204905060018216806200034457607f821691505b6020821081036200035a5762000359620002fc565b5b50919050565b60008190508160005260206000209050919050565b60006020601f8301049050919050565b600082821b905092915050565b600060088302620003c47fffffffffffffffffffffffffffffffffffffffffffffffffffffffffffffffff8262000385565b620003d0868362000385565b95508019841693508086168417925050509392505050565b6000819050919050565b6000819050919050565b60006200041d620004176200041184620003e8565b620003f2565b620003e8565b9050919050565b6000819050919050565b6200043983620003fc565b62000451620004488262000424565b84845462000392565b825550505050565b600090565b6200046862000459565b620004758184846200042e565b505050565b5b818110156200049d57620004916000826200045e565b6001810190506200047b565b5050565b601f821115620004ec57620004b68162000360565b620004c18462000375565b81016020851015620004d1578190505b620004e9620004e08562000375565b8301826200047a565b50505b505050565b600082821c905092915050565b60006200051160001984600802620004f1565b1980831691505092915050565b60006200052c8383620004fe565b9150826002028217905092915050565b6200054782620002c2565b67ffffffffffffffff811115620005635762000562620002cd565b5b6200056f82546200032b565b6200057c828285620004a1565b600060209050601f831160018114620005b457600084156200059f578287015190505b620005ab85826200051e565b8655506200061b565b601f198416620005c48662000360565b60005b82811015620005ee57848901518255600182019150602085019450602081019050620005c7565b868310156200060e57848901516200060a601f891682620004fe565b8355505b6001600288020188555050505b505050505050565b600082825260208201905092915050565b7f496e76616c696420696e74657266616365207265717565737400000000000000600082015250565b60006200066c60198362000623565b9150620006798262000634565b602082019050919050565b600060208201905081810360008301526200069f816200065d565b9050919050565b611f5e80620006b66000396000f3fe608060405234801561001057600080fd5b50600436106100b45760003560e01c80633f16fd76116100715780633f16fd761461018d5780634f6ccce7146101bd5780636352211e146101ed57806370a082311461021d57806395d89b411461024d578063d85d3d271461026b576100b4565b806301ffc9a7146100b957806306fdde03146100e9578063095ea7b31461010757806318160ddd1461012357806323b872dd146101415780632f745c591461015d575b600080fd5b6100d360048036038101906100ce91906110af565b610287565b6040516100e091906110f7565b60405180910390f35b6100f16102ee565b6040516100fe91906111a2565b60405180910390f35b610121600480360381019061011c9190611258565b610380565b005b61012b61051b565b60405161013891906112a7565b60405180910390f35b61015b600480360381019061015691906112c2565b610528565b005b61017760048036038101906101729190611258565b61054b565b60405161018491906112a7565b60405180910390f35b6101a760048036038101906101a29190611315565b6105fb565b6040516101b491906111a2565b60405180910390f35b6101d760048036038101906101d29190611315565b6106a7565b6040516101e491906112a7565b60405180910390f35b61020760048036038101906102029190611315565b610718565b6040516102149190611351565b60405180910390f35b6102376004803603810190610232919061136c565b6107c9565b60405161024491906112a7565b60405180910390f35b610255610880565b60405161026291906111a2565b60405180910390f35b610285600480360381019061028091906114ce565b610912565b005b6000806000837bffffffffffffffffffffffffffffffffffffffffffffffffffffffff19167bffffffffffffffffffffffffffffffffffffffffffffffffffffffff1916815260200190815260200160002060009054906101000a900460ff169050919050565b6060600180546102fd90611546565b80601f016020809104026020016040519081016040528092919081815260200182805461032990611546565b80156103765780601f1061034b57610100808354040283529160200191610376565b820191906000526020600020905b81548152906001019060200180831161035957829003601f168201915b5050505050905090565b600061038b82610718565b90508073ffffffffffffffffffffffffffffffffffffffff168373ffffffffffffffffffffffffffffffffffffffff16036103fb576040517f08c379a00000000000000000000000000000000000000000000000000000000081526004016103f2906115e9565b60405180910390fd5b8073ffffffffffffffffffffffffffffffffffffffff163373ffffffffffffffffffffffffffffffffffffffff1614610469576040517f08c379a00000000000000000000000000000000000000000000000000000000081526004016104609061167b565b60405180910390fd5b826005600084815260200190815260200160002060006101000a81548173ffffffffffffffffffffffffffffffffffffffff021916908373ffffffffffffffffffffffffffffffffffffffff160217905550818373ffffffffffffffffffffffffffffffffffffffff168273ffffffffffffffffffffffffffffffffffffffff167f8c5be1e5ebec7d5bd14f71427d1e84f3dd0314c0f7b2291e5b200ac8c7c3b92560405160405180910390a4505050565b6000600680549050905090565b6105323382610a0e565b61053b57600080fd5b610546838383610a9d565b505050565b6000610556836107c9565b8210610597576040517f08c379a000000000000000000000000000000000000000000000000000000000815260040161058e9061170d565b60405180910390fd5b600860008473ffffffffffffffffffffffffffffffffffffffff1673ffffffffffffffffffffffffffffffffffffffff16815260200190815260200160002082815481106105e8576105e761172d565b5b9060005260206000200154905092915050565b600a818154811061060b57600080fd5b90600052602060002001600091509050805461062690611546565b80601f016020809104026020016040519081016040528092919081815260200182805461065290611546565b801561069f5780601f106106745761010080835404028352916020019161069f565b820191906000526020600020905b81548152906001019060200180831161068257829003601f168201915b505050505081565b60006106b161051b565b82106106f2576040517f08c379a00000000000000000000000000000000000000000000000000000000081526004016106e9906117ce565b60405180910390fd5b600682815481106107065761070561172d565b5b90600052602060002001549050919050565b6000806003600084815260200190815260200160002060009054906101000a900473ffffffffffffffffffffffffffffffffffffffff169050600073ffffffffffffffffffffffffffffffffffffffff168173ffffffffffffffffffffffffffffffffffffffff16036107c0576040517f08c379a00000000000000000000000000000000000000000000000000000000081526004016107b79061183a565b60405180910390fd5b80915050919050565b60008073ffffffffffffffffffffffffffffffffffffffff168273ffffffffffffffffffffffffffffffffffffffff1603610839576040517f08c379a0000000000000000000000000000000000000000000000000000000008152600401610830906118a6565b60405180910390fd5b600460008373ffffffffffffffffffffffffffffffffffffffff1673ffffffffffffffffffffffffffffffffffffffff168152602001908152602001600020549050919050565b60606002805461088f90611546565b80601f01602080910402602001604051908101604052809291908181526020018280546108bb90611546565b80156109085780601f106108dd57610100808354040283529160200191610908565b820191906000526020600020905b8154815290600101906020018083116108eb57829003601f168201915b5050505050905090565b600b816040516109229190611902565b908152602001604051809103902060009054906101000a900460ff161561097e576040517f08c379a000000000000000000000000000000000000000000000000000000000815260040161097590611965565b60405180910390fd5b600a819080600181540180825580915050600190039060005260206000200160009091909190915090816109b29190611b31565b5060006001600a805490506109c79190611c32565b90506109d33382610ce2565b6001600b836040516109e59190611902565b908152602001604051809103902060006101000a81548160ff0219169083151502179055505050565b6000610a1982610d03565b610a58576040517f08c379a0000000000000000000000000000000000000000000000000000000008152600401610a4f90611cb2565b60405180910390fd5b6000610a6383610718565b90508073ffffffffffffffffffffffffffffffffffffffff168473ffffffffffffffffffffffffffffffffffffffff161491505092915050565b600073ffffffffffffffffffffffffffffffffffffffff168273ffffffffffffffffffffffffffffffffffffffff1603610b0c576040517f08c379a0000000000000000000000000000000000000000000000000000000008152600401610b0390611d44565b60405180910390fd5b8273ffffffffffffffffffffffffffffffffffffffff16610b2c82610718565b73ffffffffffffffffffffffffffffffffffffffff1614610b82576040517f08c379a0000000000000000000000000000000000000000000000000000000008152600401610b7990611dd6565b60405180910390fd5b6001600460008573ffffffffffffffffffffffffffffffffffffffff1673ffffffffffffffffffffffffffffffffffffffff1681526020019081526020016000206000828254610bd29190611c32565b925050819055506001600460008473ffffffffffffffffffffffffffffffffffffffff1673ffffffffffffffffffffffffffffffffffffffff1681526020019081526020016000206000828254610c299190611df6565b92505081905550816003600083815260200190815260200160002060006101000a81548173ffffffffffffffffffffffffffffffffffffffff021916908373ffffffffffffffffffffffffffffffffffffffff160217905550808273ffffffffffffffffffffffffffffffffffffffff168473ffffffffffffffffffffffffffffffffffffffff167fddf252ad1be2c89b69c2b068fc378daa952ba7f163c4a11628f55a4df523b3ef60405160405180910390a4505050565b610cec8282610d75565b610cf581610f36565b610cff8282610f7f565b5050565b6000806003600084815260200190815260200160002060009054906101000a900473ffffffffffffffffffffffffffffffffffffffff169050600073ffffffffffffffffffffffffffffffffffffffff168173ffffffffffffffffffffffffffffffffffffffff161415915050919050565b600073ffffffffffffffffffffffffffffffffffffffff168273ffffffffffffffffffffffffffffffffffffffff1603610de4576040517f08c379a0000000000000000000000000000000000000000000000000000000008152600401610ddb90611e9c565b60405180910390fd5b610ded81610d03565b15610e2d576040517f08c379a0000000000000000000000000000000000000000000000000000000008152600401610e2490611f08565b60405180910390fd5b816003600083815260200190815260200160002060006101000a81548173ffffffffffffffffffffffffffffffffffffffff021916908373ffffffffffffffffffffffffffffffffffffffff1602179055506001600460008473ffffffffffffffffffffffffffffffffffffffff1673ffffffffffffffffffffffffffffffffffffffff1681526020019081526020016000206000828254610ecf9190611df6565b92505081905550808273ffffffffffffffffffffffffffffffffffffffff16600073ffffffffffffffffffffffffffffffffffffffff167fddf252ad1be2c89b69c2b068fc378daa952ba7f163c4a11628f55a4df523b3ef60405160405180910390a45050565b6006805490506007600083815260200190815260200160002081905550600681908060018154018082558091505060019003906000526020600020016000909190919091505550565b600860008373ffffffffffffffffffffffffffffffffffffffff1673ffffffffffffffffffffffffffffffffffffffff168152602001908152602001600020805490506009600083815260200190815260200160002081905550600860008373ffffffffffffffffffffffffffffffffffffffff1673ffffffffffffffffffffffffffffffffffffffff1681526020019081526020016000208190806001815401808255809150506001900390600052602060002001600090919091909150555050565b6000604051905090565b600080fd5b600080fd5b60007fffffffff0000000000000000000000000000000000000000000000000000000082169050919050565b61108c81611057565b811461109757600080fd5b50565b6000813590506110a981611083565b92915050565b6000602082840312156110c5576110c461104d565b5b60006110d38482850161109a565b91505092915050565b60008115159050919050565b6110f1816110dc565b82525050565b600060208201905061110c60008301846110e8565b92915050565b600081519050919050565b600082825260208201905092915050565b60005b8381101561114c578082015181840152602081019050611131565b60008484015250505050565b6000601f19601f8301169050919050565b600061117482611112565b61117e818561111d565b935061118e81856020860161112e565b61119781611158565b840191505092915050565b600060208201905081810360008301526111bc8184611169565b905092915050565b600073ffffffffffffffffffffffffffffffffffffffff82169050919050565b60006111ef826111c4565b9050919050565b6111ff816111e4565b811461120a57600080fd5b50565b60008135905061121c816111f6565b92915050565b6000819050919050565b61123581611222565b811461124057600080fd5b50565b6000813590506112528161122c565b92915050565b6000806040838503121561126f5761126e61104d565b5b600061127d8582860161120d565b925050602061128e85828601611243565b9150509250929050565b6112a181611222565b82525050565b60006020820190506112bc6000830184611298565b92915050565b6000806000606084860312156112db576112da61104d565b5b60006112e98682870161120d565b93505060206112fa8682870161120d565b925050604061130b86828701611243565b9150509250925092565b60006020828403121561132b5761132a61104d565b5b600061133984828501611243565b91505092915050565b61134b816111e4565b82525050565b60006020820190506113666000830184611342565b92915050565b6000602082840312156113825761138161104d565b5b60006113908482850161120d565b91505092915050565b600080fd5b600080fd5b7f4e487b7100000000000000000000000000000000000000000000000000000000600052604160045260246000fd5b6113db82611158565b810181811067ffffffffffffffff821117156113fa576113f96113a3565b5b80604052505050565b600061140d611043565b905061141982826113d2565b919050565b600067ffffffffffffffff821115611439576114386113a3565b5b61144282611158565b9050602081019050919050565b82818337600083830152505050565b600061147161146c8461141e565b611403565b90508281526020810184848401111561148d5761148c61139e565b5b61149884828561144f565b509392505050565b600082601f8301126114b5576114b4611399565b5b81356114c584826020860161145e565b91505092915050565b6000602082840312156114e4576114e361104d565b5b600082013567ffffffffffffffff81111561150257611501611052565b5b61150e848285016114a0565b91505092915050565b7f4e487b7100000000000000000000000000000000000000000000000000000000600052602260045260246000fd5b6000600282049050600182168061155e57607f821691505b60208210810361157157611570611517565b5b50919050565b7f4572726f72202d20617070726f76616c20666f722063757272656e74206f776e60008201527f6572000000000000000000000000000000000000000000000000000000000000602082015250565b60006115d360228361111d565b91506115de82611577565b604082019050919050565b60006020820190508181036000830152611602816115c6565b9050919050565b7f43757272656e742063616c6c6572206973206e6f7420746865206f776e65722060008201527f6f662074686520746f6b656e0000000000000000000000000000000000000000602082015250565b6000611665602c8361111d565b915061167082611609565b604082019050919050565b6000602082019050818103600083015261169481611658565b9050919050565b7f546f6b656e2061742074686520676976656e20696e646578206f66207468652060008201527f676976656e207573657220646f65736e27742065786973740000000000000000602082015250565b60006116f760388361111d565b91506117028261169b565b604082019050919050565b60006020820190508181036000830152611726816116ea565b9050919050565b7f4e487b7100000000000000000000000000000000000000000000000000000000600052603260045260246000fd5b7f546f6b656e2061742074686520676976656e20696e64657820646f65736e277460008201527f2065786973740000000000000000000000000000000000000000000000000000602082015250565b60006117b860268361111d565b91506117c38261175c565b604082019050919050565b600060208201905081810360008301526117e7816117ab565b9050919050565b7f6f6e77657220717565727920666f72206e6f6e2d657869737420746f6b656e00600082015250565b6000611824601f8361111d565b915061182f826117ee565b602082019050919050565b6000602082019050818103600083015261185381611817565b9050919050565b7f6f776e657220717565727920666f72206e6f6e2d657869737420746f6b656e00600082015250565b6000611890601f8361111d565b915061189b8261185a565b602082019050919050565b600060208201905081810360008301526118bf81611883565b9050919050565b600081905092915050565b60006118dc82611112565b6118e681856118c6565b93506118f681856020860161112e565b80840191505092915050565b600061190e82846118d1565b915081905092915050565b7f43727970746f4269726420697320616c7265616479206d696e74656421000000600082015250565b600061194f601d8361111d565b915061195a82611919565b602082019050919050565b6000602082019050818103600083015261197e81611942565b9050919050565b60008190508160005260206000209050919050565b60006020601f8301049050919050565b600082821b905092915050565b6000600883026119e77fffffffffffffffffffffffffffffffffffffffffffffffffffffffffffffffff826119aa565b6119f186836119aa565b95508019841693508086168417925050509392505050565b6000819050919050565b6000611a2e611a29611a2484611222565b611a09565b611222565b9050919050565b6000819050919050565b611a4883611a13565b611a5c611a5482611a35565b8484546119b7565b825550505050565b600090565b611a71611a64565b611a7c818484611a3f565b505050565b5b81811015611aa057611a95600082611a69565b600181019050611a82565b5050565b601f821115611ae557611ab681611985565b611abf8461199a565b81016020851015611ace578190505b611ae2611ada8561199a565b830182611a81565b50505b505050565b600082821c905092915050565b6000611b0860001984600802611aea565b1980831691505092915050565b6000611b218383611af7565b9150826002028217905092915050565b611b3a82611112565b67ffffffffffffffff811115611b5357611b526113a3565b5b611b5d8254611546565b611b68828285611aa4565b600060209050601f831160018114611b9b5760008415611b89578287015190505b611b938582611b15565b865550611bfb565b601f198416611ba986611985565b60005b82811015611bd157848901518255600182019150602085019450602081019050611bac565b86831015611bee5784890151611bea601f891682611af7565b8355505b6001600288020188555050505b505050505050565b7f4e487b7100000000000000000000000000000000000000000000000000000000600052601160045260246000fd5b6000611c3d82611222565b9150611c4883611222565b9250828203905081811115611c6057611c5f611c03565b5b92915050565b7f546f6b656e20646f65736e742065786973740000000000000000000000000000600082015250565b6000611c9c60128361111d565b9150611ca782611c66565b602082019050919050565b60006020820190508181036000830152611ccb81611c8f565b9050919050565b7f4572726f72202d20547279696e6720746f207472616e7366657220746f6b656e60008201527f20746f207a65726f206164647265737300000000000000000000000000000000602082015250565b6000611d2e60308361111d565b9150611d3982611cd2565b604082019050919050565b60006020820190508181036000830152611d5d81611d21565b9050919050565b7f4572726f72202d20747279696e6720746f2073656e64206e6f6e2d657869737460008201527f696e6720746f6b656e20666f722063757272656e742061646472657373000000602082015250565b6000611dc0603d8361111d565b9150611dcb82611d64565b604082019050919050565b60006020820190508181036000830152611def81611db3565b9050919050565b6000611e0182611222565b9150611e0c83611222565b9250828201905080821115611e2457611e23611c03565b5b92915050565b7f455243373231206d757374206265206d696e74656420746f206e6f6e207a657260008201527f6f20616464726573730000000000000000000000000000000000000000000000602082015250565b6000611e8660298361111d565b9150611e9182611e2a565b604082019050919050565b60006020820190508181036000830152611eb581611e79565b9050919050565b7f546f6b656e20616c7265616479206265656e206d696e74656400000000000000600082015250565b6000611ef260198361111d565b9150611efd82611ebc565b602082019050919050565b60006020820190508181036000830152611f2181611ee5565b905091905056fea26469706673582212205731d3ec48072c24fc59c819839b957a3669d35fa233060ccbabf54327555f8c64736f6c63430008110033",
  "immutableReferences": {},
  "source": "//SPDX-License-Identifier: MIT\npragma solidity ^0.8.17;\n\nimport \"./ERC721Connector.sol\";\n\ncontract CryptoBirds is ERC721Connector {\n    constructor() ERC721Connector('CryptoBirds', 'CBIRDS') {}\n\n    string[] public _cryptoBirds;\n    mapping (string => bool) _cryptoBirdMinted;\n\n    function mint(string memory cryptoBird) public {\n        require(!_cryptoBirdMinted[cryptoBird], 'CryptoBird is already minted!');\n\n        _cryptoBirds.push(cryptoBird);\n        uint id = _cryptoBirds.length - 1;\n        _mint(msg.sender, id);\n        _cryptoBirdMinted[cryptoBird] = true;\n    }\n}",
  "sourcePath": "/Users/m_kozhemiakin/Documents/Own projects/nft-market/contracts/CryptoBirds.sol",
  "compiler": {
    "name": "solc",
    "version": "0.8.17+commit.8df45f5f.Emscripten.clang"
  },
  "schemaVersion": "3.4.10",
  "updatedAt": "2022-11-13T08:23:01.259Z",
  "networkType": "ethereum",
  "devdoc": {
    "kind": "dev",
    "methods": {},
    "version": 1
  },
  "userdoc": {
    "kind": "user",
    "methods": {},
    "version": 1
  }
}