{
  "contractName": "CryptoBirds",
  "abi": [
    {
      "inputs": [],
      "stateMutability": "nonpayable",
      "type": "constructor"
    },
    {
      "anonymous": false,
      "inputs": [
        {
          "indexed": true,
          "internalType": "address",
          "name": "from",
          "type": "address"
        },
        {
          "indexed": true,
          "internalType": "address",
          "name": "to",
          "type": "address"
        },
        {
          "indexed": true,
          "internalType": "uint256",
          "name": "tokenId",
          "type": "uint256"
        }
      ],
      "name": "Transfer",
      "type": "event"
    },
    {
      "inputs": [
        {
          "internalType": "uint256",
          "name": "",
          "type": "uint256"
        }
      ],
      "name": "_cryptoBirds",
      "outputs": [
        {
          "internalType": "string",
          "name": "",
          "type": "string"
        }
      ],
      "stateMutability": "view",
      "type": "function",
      "constant": true
    },
    {
      "inputs": [
        {
          "internalType": "address",
          "name": "_owner",
          "type": "address"
        }
      ],
      "name": "balanceOf",
      "outputs": [
        {
          "internalType": "uint256",
          "name": "",
          "type": "uint256"
        }
      ],
      "stateMutability": "view",
      "type": "function",
      "constant": true
    },
    {
      "inputs": [],
      "name": "name",
      "outputs": [
        {
          "internalType": "string",
          "name": "",
          "type": "string"
        }
      ],
      "stateMutability": "view",
      "type": "function",
      "constant": true
    },
    {
      "inputs": [
        {
          "internalType": "uint256",
          "name": "_tokenId",
          "type": "uint256"
        }
      ],
      "name": "ownerOf",
      "outputs": [
        {
          "internalType": "address",
          "name": "",
          "type": "address"
        }
      ],
      "stateMutability": "view",
      "type": "function",
      "constant": true
    },
    {
      "inputs": [],
      "name": "symbol",
      "outputs": [
        {
          "internalType": "string",
          "name": "",
          "type": "string"
        }
      ],
      "stateMutability": "view",
      "type": "function",
      "constant": true
    },
    {
      "inputs": [],
      "name": "totalSupply",
      "outputs": [
        {
          "internalType": "uint256",
          "name": "",
          "type": "uint256"
        }
      ],
      "stateMutability": "view",
      "type": "function",
      "constant": true
    },
    {
      "inputs": [
        {
          "internalType": "string",
          "name": "cryptoBird",
          "type": "string"
        }
      ],
      "name": "mint",
      "outputs": [],
      "stateMutability": "nonpayable",
      "type": "function"
    }
  ],
  "bytecode": "0x60806040523480156200001157600080fd5b506040518060400160405280600b81526020017f43727970746f42697264730000000000000000000000000000000000000000008152506040518060400160405280600681526020017f43424952445300000000000000000000000000000000000000000000000000008152508181816000908162000091919062000328565b508060019081620000a3919062000328565b50505050506200040f565b600081519050919050565b7f4e487b7100000000000000000000000000000000000000000000000000000000600052604160045260246000fd5b7f4e487b7100000000000000000000000000000000000000000000000000000000600052602260045260246000fd5b600060028204905060018216806200013057607f821691505b602082108103620001465762000145620000e8565b5b50919050565b60008190508160005260206000209050919050565b60006020601f8301049050919050565b600082821b905092915050565b600060088302620001b07fffffffffffffffffffffffffffffffffffffffffffffffffffffffffffffffff8262000171565b620001bc868362000171565b95508019841693508086168417925050509392505050565b6000819050919050565b6000819050919050565b60006200020962000203620001fd84620001d4565b620001de565b620001d4565b9050919050565b6000819050919050565b6200022583620001e8565b6200023d620002348262000210565b8484546200017e565b825550505050565b600090565b6200025462000245565b620002618184846200021a565b505050565b5b8181101562000289576200027d6000826200024a565b60018101905062000267565b5050565b601f821115620002d857620002a2816200014c565b620002ad8462000161565b81016020851015620002bd578190505b620002d5620002cc8562000161565b83018262000266565b50505b505050565b600082821c905092915050565b6000620002fd60001984600802620002dd565b1980831691505092915050565b6000620003188383620002ea565b9150826002028217905092915050565b6200033382620000ae565b67ffffffffffffffff8111156200034f576200034e620000b9565b5b6200035b825462000117565b620003688282856200028d565b600060209050601f831160018114620003a057600084156200038b578287015190505b6200039785826200030a565b86555062000407565b601f198416620003b0866200014c565b60005b82811015620003da57848901518255600182019150602085019450602081019050620003b3565b86831015620003fa5784890151620003f6601f891682620002ea565b8355505b6001600288020188555050505b505050505050565b611205806200041f6000396000f3fe608060405234801561001057600080fd5b506004361061007d5760003560e01c80636352211e1161005b5780636352211e146100ee57806370a082311461011e57806395d89b411461014e578063d85d3d271461016c5761007d565b806306fdde031461008257806318160ddd146100a05780633f16fd76146100be575b600080fd5b61008a610188565b60405161009791906108cf565b60405180910390f35b6100a861021a565b6040516100b5919061090a565b60405180910390f35b6100d860048036038101906100d39190610965565b610227565b6040516100e591906108cf565b60405180910390f35b61010860048036038101906101039190610965565b6102d3565b60405161011591906109d3565b60405180910390f35b61013860048036038101906101339190610a1a565b610384565b604051610145919061090a565b60405180910390f35b61015661043b565b60405161016391906108cf565b60405180910390f35b61018660048036038101906101819190610b7c565b6104cd565b005b60606000805461019790610bf4565b80601f01602080910402602001604051908101604052809291908181526020018280546101c390610bf4565b80156102105780601f106101e557610100808354040283529160200191610210565b820191906000526020600020905b8154815290600101906020018083116101f357829003601f168201915b5050505050905090565b6000600480549050905090565b6008818154811061023757600080fd5b90600052602060002001600091509050805461025290610bf4565b80601f016020809104026020016040519081016040528092919081815260200182805461027e90610bf4565b80156102cb5780601f106102a0576101008083540402835291602001916102cb565b820191906000526020600020905b8154815290600101906020018083116102ae57829003601f168201915b505050505081565b6000806002600084815260200190815260200160002060009054906101000a900473ffffffffffffffffffffffffffffffffffffffff169050600073ffffffffffffffffffffffffffffffffffffffff168173ffffffffffffffffffffffffffffffffffffffff160361037b576040517f08c379a000000000000000000000000000000000000000000000000000000000815260040161037290610c71565b60405180910390fd5b80915050919050565b60008073ffffffffffffffffffffffffffffffffffffffff168273ffffffffffffffffffffffffffffffffffffffff16036103f4576040517f08c379a00000000000000000000000000000000000000000000000000000000081526004016103eb90610cdd565b60405180910390fd5b600360008373ffffffffffffffffffffffffffffffffffffffff1673ffffffffffffffffffffffffffffffffffffffff168152602001908152602001600020549050919050565b60606001805461044a90610bf4565b80601f016020809104026020016040519081016040528092919081815260200182805461047690610bf4565b80156104c35780601f10610498576101008083540402835291602001916104c3565b820191906000526020600020905b8154815290600101906020018083116104a657829003601f168201915b5050505050905090565b6009816040516104dd9190610d39565b908152602001604051809103902060009054906101000a900460ff1615610539576040517f08c379a000000000000000000000000000000000000000000000000000000000815260040161053090610d9c565b60405180910390fd5b60088190806001815401808255809150506001900390600052602060002001600090919091909150908161056d9190610f68565b50600060016008805490506105829190611069565b905061058e33826105c9565b60016009836040516105a09190610d39565b908152602001604051809103902060006101000a81548160ff0219169083151502179055505050565b6105d382826105e0565b6105dc816107a1565b5050565b600073ffffffffffffffffffffffffffffffffffffffff168273ffffffffffffffffffffffffffffffffffffffff160361064f576040517f08c379a00000000000000000000000000000000000000000000000000000000081526004016106469061110f565b60405180910390fd5b610658816107cd565b15610698576040517f08c379a000000000000000000000000000000000000000000000000000000000815260040161068f9061117b565b60405180910390fd5b816002600083815260200190815260200160002060006101000a81548173ffffffffffffffffffffffffffffffffffffffff021916908373ffffffffffffffffffffffffffffffffffffffff1602179055506001600360008473ffffffffffffffffffffffffffffffffffffffff1673ffffffffffffffffffffffffffffffffffffffff168152602001908152602001600020600082825461073a919061119b565b92505081905550808273ffffffffffffffffffffffffffffffffffffffff16600073ffffffffffffffffffffffffffffffffffffffff167fddf252ad1be2c89b69c2b068fc378daa952ba7f163c4a11628f55a4df523b3ef60405160405180910390a45050565b600481908060018154018082558091505060019003906000526020600020016000909190919091505550565b6000806002600084815260200190815260200160002060009054906101000a900473ffffffffffffffffffffffffffffffffffffffff169050600073ffffffffffffffffffffffffffffffffffffffff168173ffffffffffffffffffffffffffffffffffffffff161415915050919050565b600081519050919050565b600082825260208201905092915050565b60005b8381101561087957808201518184015260208101905061085e565b60008484015250505050565b6000601f19601f8301169050919050565b60006108a18261083f565b6108ab818561084a565b93506108bb81856020860161085b565b6108c481610885565b840191505092915050565b600060208201905081810360008301526108e98184610896565b905092915050565b6000819050919050565b610904816108f1565b82525050565b600060208201905061091f60008301846108fb565b92915050565b6000604051905090565b600080fd5b600080fd5b610942816108f1565b811461094d57600080fd5b50565b60008135905061095f81610939565b92915050565b60006020828403121561097b5761097a61092f565b5b600061098984828501610950565b91505092915050565b600073ffffffffffffffffffffffffffffffffffffffff82169050919050565b60006109bd82610992565b9050919050565b6109cd816109b2565b82525050565b60006020820190506109e860008301846109c4565b92915050565b6109f7816109b2565b8114610a0257600080fd5b50565b600081359050610a14816109ee565b92915050565b600060208284031215610a3057610a2f61092f565b5b6000610a3e84828501610a05565b91505092915050565b600080fd5b600080fd5b7f4e487b7100000000000000000000000000000000000000000000000000000000600052604160045260246000fd5b610a8982610885565b810181811067ffffffffffffffff82111715610aa857610aa7610a51565b5b80604052505050565b6000610abb610925565b9050610ac78282610a80565b919050565b600067ffffffffffffffff821115610ae757610ae6610a51565b5b610af082610885565b9050602081019050919050565b82818337600083830152505050565b6000610b1f610b1a84610acc565b610ab1565b905082815260208101848484011115610b3b57610b3a610a4c565b5b610b46848285610afd565b509392505050565b600082601f830112610b6357610b62610a47565b5b8135610b73848260208601610b0c565b91505092915050565b600060208284031215610b9257610b9161092f565b5b600082013567ffffffffffffffff811115610bb057610baf610934565b5b610bbc84828501610b4e565b91505092915050565b7f4e487b7100000000000000000000000000000000000000000000000000000000600052602260045260246000fd5b60006002820490506001821680610c0c57607f821691505b602082108103610c1f57610c1e610bc5565b5b50919050565b7f6f6e77657220717565727920666f72206e6f6e2d657869737420746f6b656e00600082015250565b6000610c5b601f8361084a565b9150610c6682610c25565b602082019050919050565b60006020820190508181036000830152610c8a81610c4e565b9050919050565b7f6f776e657220717565727920666f72206e6f6e2d657869737420746f6b656e00600082015250565b6000610cc7601f8361084a565b9150610cd282610c91565b602082019050919050565b60006020820190508181036000830152610cf681610cba565b9050919050565b600081905092915050565b6000610d138261083f565b610d1d8185610cfd565b9350610d2d81856020860161085b565b80840191505092915050565b6000610d458284610d08565b915081905092915050565b7f43727970746f4269726420697320616c7265616479206d696e74656421000000600082015250565b6000610d86601d8361084a565b9150610d9182610d50565b602082019050919050565b60006020820190508181036000830152610db581610d79565b9050919050565b60008190508160005260206000209050919050565b60006020601f8301049050919050565b600082821b905092915050565b600060088302610e1e7fffffffffffffffffffffffffffffffffffffffffffffffffffffffffffffffff82610de1565b610e288683610de1565b95508019841693508086168417925050509392505050565b6000819050919050565b6000610e65610e60610e5b846108f1565b610e40565b6108f1565b9050919050565b6000819050919050565b610e7f83610e4a565b610e93610e8b82610e6c565b848454610dee565b825550505050565b600090565b610ea8610e9b565b610eb3818484610e76565b505050565b5b81811015610ed757610ecc600082610ea0565b600181019050610eb9565b5050565b601f821115610f1c57610eed81610dbc565b610ef684610dd1565b81016020851015610f05578190505b610f19610f1185610dd1565b830182610eb8565b50505b505050565b600082821c905092915050565b6000610f3f60001984600802610f21565b1980831691505092915050565b6000610f588383610f2e565b9150826002028217905092915050565b610f718261083f565b67ffffffffffffffff811115610f8a57610f89610a51565b5b610f948254610bf4565b610f9f828285610edb565b600060209050601f831160018114610fd25760008415610fc0578287015190505b610fca8582610f4c565b865550611032565b601f198416610fe086610dbc565b60005b8281101561100857848901518255600182019150602085019450602081019050610fe3565b868310156110255784890151611021601f891682610f2e565b8355505b6001600288020188555050505b505050505050565b7f4e487b7100000000000000000000000000000000000000000000000000000000600052601160045260246000fd5b6000611074826108f1565b915061107f836108f1565b92508282039050818111156110975761109661103a565b5b92915050565b7f455243373231206d757374206265206d696e74656420746f206e6f6e207a657260008201527f6f20616464726573730000000000000000000000000000000000000000000000602082015250565b60006110f960298361084a565b91506111048261109d565b604082019050919050565b60006020820190508181036000830152611128816110ec565b9050919050565b7f546f6b656e20616c7265616479206265656e206d696e74656400000000000000600082015250565b600061116560198361084a565b91506111708261112f565b602082019050919050565b6000602082019050818103600083015261119481611158565b9050919050565b60006111a6826108f1565b91506111b1836108f1565b92508282019050808211156111c9576111c861103a565b5b9291505056fea264697066735822122072ca394c5969ddc0c93543d1bdd07a706e79c8270cc79f558c30da02482999bd64736f6c63430008110033",
  "immutableReferences": {},
  "source": "//SPDX-License-Identifier: MIT\npragma solidity ^0.8.17;\n\nimport \"./ERC721Connector.sol\";\n\ncontract CryptoBirds is ERC721Connector {\n    constructor() ERC721Connector('CryptoBirds', 'CBIRDS') {}\n\n    string[] public _cryptoBirds;\n    mapping (string => bool) _cryptoBirdMinted;\n\n    function mint(string memory cryptoBird) public {\n        require(!_cryptoBirdMinted[cryptoBird], 'CryptoBird is already minted!');\n\n        _cryptoBirds.push(cryptoBird);\n        uint id = _cryptoBirds.length - 1;\n        _mint(msg.sender, id);\n        _cryptoBirdMinted[cryptoBird] = true;\n    }\n}",
  "sourcePath": "/Users/m_kozhemiakin/Documents/Own projects/nft-market/contracts/CryptoBirds.sol",
  "compiler": {
    "name": "solc",
    "version": "0.8.17+commit.8df45f5f.Emscripten.clang"
  },
  "schemaVersion": "3.4.10",
  "updatedAt": "2022-11-01T20:21:05.386Z",
  "networkType": "ethereum",
  "devdoc": {
    "kind": "dev",
    "methods": {},
    "version": 1
  },
  "userdoc": {
    "kind": "user",
    "methods": {},
    "version": 1
  }
}