{
  "contractName": "ERC165",
  "abi": [
    {
      "inputs": [
        {
          "internalType": "bytes4",
          "name": "interfaceId",
          "type": "bytes4"
        }
      ],
      "name": "supportsInterface",
      "outputs": [
        {
          "internalType": "bool",
          "name": "",
          "type": "bool"
        }
      ],
      "stateMutability": "view",
      "type": "function"
    }
  ],
  "bytecode": "0x608060405234801561001057600080fd5b506101bd806100206000396000f3fe608060405234801561001057600080fd5b506004361061002b5760003560e01c806301ffc9a714610030575b600080fd5b61004a60048036038101906100459190610124565b610060565b604051610057919061016c565b60405180910390f35b6000806000837bffffffffffffffffffffffffffffffffffffffffffffffffffffffff19167bffffffffffffffffffffffffffffffffffffffffffffffffffffffff1916815260200190815260200160002060009054906101000a900460ff169050919050565b600080fd5b60007fffffffff0000000000000000000000000000000000000000000000000000000082169050919050565b610101816100cc565b811461010c57600080fd5b50565b60008135905061011e816100f8565b92915050565b60006020828403121561013a576101396100c7565b5b60006101488482850161010f565b91505092915050565b60008115159050919050565b61016681610151565b82525050565b6000602082019050610181600083018461015d565b9291505056fea26469706673582212208d2c6b058381752d0d4c4a135d561c54f80f3f21954e247fa72ef683b587633e64736f6c63430008110033",
  "immutableReferences": {},
  "source": "//SPDX-License-Identifier: MIT\npragma solidity ^0.8.17;\n\nimport './interfaces/IERC165.sol';\n\ncontract ERC165 is IERC165 {\n    mapping(bytes4 => bool) private _supportedInterfaces;\n\n    function supportsInterface(bytes4 interfaceId) external view override returns(bool) {\n        return _supportedInterfaces[interfaceId];\n    }\n\n    function _registerInterface(bytes4 interfaceId) internal {\n        require(interfaceId != 0xffffffff, 'Invalid interface request');\n        _supportedInterfaces[interfaceId] = true;\n    }\n}",
  "sourcePath": "/Users/m_kozhemiakin/Documents/Own projects/nft-market/contracts/ERC165.sol",
  "compiler": {
    "name": "solc",
    "version": "0.8.17+commit.8df45f5f.Emscripten.clang"
  },
  "schemaVersion": "3.4.10",
  "updatedAt": "2022-11-13T08:22:34.186Z",
  "devdoc": {
    "kind": "dev",
    "methods": {},
    "version": 1
  },
  "userdoc": {
    "kind": "user",
    "methods": {},
    "version": 1
  }
}