{
  "contractName": "ERC721Connector",
  "abi": [
    {
      "inputs": [
        {
          "internalType": "string",
          "name": "name",
          "type": "string"
        },
        {
          "internalType": "string",
          "name": "symbol",
          "type": "string"
        }
      ],
      "stateMutability": "nonpayable",
      "type": "constructor"
    },
    {
      "anonymous": false,
      "inputs": [
        {
          "indexed": true,
          "internalType": "address",
          "name": "from",
          "type": "address"
        },
        {
          "indexed": true,
          "internalType": "address",
          "name": "to",
          "type": "address"
        },
        {
          "indexed": true,
          "internalType": "uint256",
          "name": "tokenId",
          "type": "uint256"
        }
      ],
      "name": "Transfer",
      "type": "event"
    },
    {
      "inputs": [
        {
          "internalType": "address",
          "name": "_owner",
          "type": "address"
        }
      ],
      "name": "balanceOf",
      "outputs": [
        {
          "internalType": "uint256",
          "name": "",
          "type": "uint256"
        }
      ],
      "stateMutability": "view",
      "type": "function"
    },
    {
      "inputs": [
        {
          "internalType": "address",
          "name": "owner",
          "type": "address"
        },
        {
          "internalType": "uint256",
          "name": "index",
          "type": "uint256"
        }
      ],
      "name": "getTokenByAddressAndIndex",
      "outputs": [
        {
          "internalType": "uint256",
          "name": "",
          "type": "uint256"
        }
      ],
      "stateMutability": "view",
      "type": "function"
    },
    {
      "inputs": [
        {
          "internalType": "uint256",
          "name": "index",
          "type": "uint256"
        }
      ],
      "name": "getTokenByIndex",
      "outputs": [
        {
          "internalType": "uint256",
          "name": "",
          "type": "uint256"
        }
      ],
      "stateMutability": "view",
      "type": "function"
    },
    {
      "inputs": [],
      "name": "name",
      "outputs": [
        {
          "internalType": "string",
          "name": "",
          "type": "string"
        }
      ],
      "stateMutability": "view",
      "type": "function"
    },
    {
      "inputs": [
        {
          "internalType": "uint256",
          "name": "_tokenId",
          "type": "uint256"
        }
      ],
      "name": "ownerOf",
      "outputs": [
        {
          "internalType": "address",
          "name": "",
          "type": "address"
        }
      ],
      "stateMutability": "view",
      "type": "function"
    },
    {
      "inputs": [],
      "name": "symbol",
      "outputs": [
        {
          "internalType": "string",
          "name": "",
          "type": "string"
        }
      ],
      "stateMutability": "view",
      "type": "function"
    },
    {
      "inputs": [],
      "name": "totalSupply",
      "outputs": [
        {
          "internalType": "uint256",
          "name": "",
          "type": "uint256"
        }
      ],
      "stateMutability": "view",
      "type": "function"
    }
  ],
  "bytecode": "0x60806040523480156200001157600080fd5b5060405162001011380380620010118339818101604052810190620000379190620001fa565b818181600090816200004a9190620004ca565b5080600190816200005c9190620004ca565b5050505050620005b1565b6000604051905090565b600080fd5b600080fd5b600080fd5b600080fd5b6000601f19601f8301169050919050565b7f4e487b7100000000000000000000000000000000000000000000000000000000600052604160045260246000fd5b620000d08262000085565b810181811067ffffffffffffffff82111715620000f257620000f162000096565b5b80604052505050565b60006200010762000067565b9050620001158282620000c5565b919050565b600067ffffffffffffffff82111562000138576200013762000096565b5b620001438262000085565b9050602081019050919050565b60005b838110156200017057808201518184015260208101905062000153565b60008484015250505050565b6000620001936200018d846200011a565b620000fb565b905082815260208101848484011115620001b257620001b162000080565b5b620001bf84828562000150565b509392505050565b600082601f830112620001df57620001de6200007b565b5b8151620001f18482602086016200017c565b91505092915050565b6000806040838503121562000214576200021362000071565b5b600083015167ffffffffffffffff81111562000235576200023462000076565b5b6200024385828601620001c7565b925050602083015167ffffffffffffffff81111562000267576200026662000076565b5b6200027585828601620001c7565b9150509250929050565b600081519050919050565b7f4e487b7100000000000000000000000000000000000000000000000000000000600052602260045260246000fd5b60006002820490506001821680620002d257607f821691505b602082108103620002e857620002e76200028a565b5b50919050565b60008190508160005260206000209050919050565b60006020601f8301049050919050565b600082821b905092915050565b600060088302620003527fffffffffffffffffffffffffffffffffffffffffffffffffffffffffffffffff8262000313565b6200035e868362000313565b95508019841693508086168417925050509392505050565b6000819050919050565b6000819050919050565b6000620003ab620003a56200039f8462000376565b62000380565b62000376565b9050919050565b6000819050919050565b620003c7836200038a565b620003df620003d682620003b2565b84845462000320565b825550505050565b600090565b620003f6620003e7565b62000403818484620003bc565b505050565b5b818110156200042b576200041f600082620003ec565b60018101905062000409565b5050565b601f8211156200047a576200044481620002ee565b6200044f8462000303565b810160208510156200045f578190505b620004776200046e8562000303565b83018262000408565b50505b505050565b600082821c905092915050565b60006200049f600019846008026200047f565b1980831691505092915050565b6000620004ba83836200048c565b9150826002028217905092915050565b620004d5826200027f565b67ffffffffffffffff811115620004f157620004f062000096565b5b620004fd8254620002b9565b6200050a8282856200042f565b600060209050601f8311600181146200054257600084156200052d578287015190505b620005398582620004ac565b865550620005a9565b601f1984166200055286620002ee565b60005b828110156200057c5784890151825560018201915060208501945060208101905062000555565b868310156200059c578489015162000598601f8916826200048c565b8355505b6001600288020188555050505b505050505050565b610a5080620005c16000396000f3fe608060405234801561001057600080fd5b506004361061007d5760003560e01c8063644b7a431161005b578063644b7a43146100ee57806370a082311461011e57806395d89b411461014e578063efafa77b1461016c5761007d565b806306fdde031461008257806318160ddd146100a05780636352211e146100be575b600080fd5b61008a61019c565b60405161009791906105e6565b60405180910390f35b6100a861022e565b6040516100b59190610621565b60405180910390f35b6100d860048036038101906100d3919061066d565b61023b565b6040516100e591906106db565b60405180910390f35b6101086004803603810190610103919061066d565b6102ec565b6040516101159190610621565b60405180910390f35b61013860048036038101906101339190610722565b61035d565b6040516101459190610621565b60405180910390f35b610156610414565b60405161016391906105e6565b60405180910390f35b6101866004803603810190610181919061074f565b6104a6565b6040516101939190610621565b60405180910390f35b6060600080546101ab906107be565b80601f01602080910402602001604051908101604052809291908181526020018280546101d7906107be565b80156102245780601f106101f957610100808354040283529160200191610224565b820191906000526020600020905b81548152906001019060200180831161020757829003601f168201915b5050505050905090565b6000600480549050905090565b6000806002600084815260200190815260200160002060009054906101000a900473ffffffffffffffffffffffffffffffffffffffff169050600073ffffffffffffffffffffffffffffffffffffffff168173ffffffffffffffffffffffffffffffffffffffff16036102e3576040517f08c379a00000000000000000000000000000000000000000000000000000000081526004016102da9061083b565b60405180910390fd5b80915050919050565b60006102f661022e565b8210610337576040517f08c379a000000000000000000000000000000000000000000000000000000000815260040161032e906108cd565b60405180910390fd5b6004828154811061034b5761034a6108ed565b5b90600052602060002001549050919050565b60008073ffffffffffffffffffffffffffffffffffffffff168273ffffffffffffffffffffffffffffffffffffffff16036103cd576040517f08c379a00000000000000000000000000000000000000000000000000000000081526004016103c490610968565b60405180910390fd5b600360008373ffffffffffffffffffffffffffffffffffffffff1673ffffffffffffffffffffffffffffffffffffffff168152602001908152602001600020549050919050565b606060018054610423906107be565b80601f016020809104026020016040519081016040528092919081815260200182805461044f906107be565b801561049c5780601f106104715761010080835404028352916020019161049c565b820191906000526020600020905b81548152906001019060200180831161047f57829003601f168201915b5050505050905090565b60006104b18361035d565b82106104f2576040517f08c379a00000000000000000000000000000000000000000000000000000000081526004016104e9906109fa565b60405180910390fd5b600660008473ffffffffffffffffffffffffffffffffffffffff1673ffffffffffffffffffffffffffffffffffffffff1681526020019081526020016000208281548110610543576105426108ed565b5b9060005260206000200154905092915050565b600081519050919050565b600082825260208201905092915050565b60005b83811015610590578082015181840152602081019050610575565b60008484015250505050565b6000601f19601f8301169050919050565b60006105b882610556565b6105c28185610561565b93506105d2818560208601610572565b6105db8161059c565b840191505092915050565b6000602082019050818103600083015261060081846105ad565b905092915050565b6000819050919050565b61061b81610608565b82525050565b60006020820190506106366000830184610612565b92915050565b600080fd5b61064a81610608565b811461065557600080fd5b50565b60008135905061066781610641565b92915050565b6000602082840312156106835761068261063c565b5b600061069184828501610658565b91505092915050565b600073ffffffffffffffffffffffffffffffffffffffff82169050919050565b60006106c58261069a565b9050919050565b6106d5816106ba565b82525050565b60006020820190506106f060008301846106cc565b92915050565b6106ff816106ba565b811461070a57600080fd5b50565b60008135905061071c816106f6565b92915050565b6000602082840312156107385761073761063c565b5b60006107468482850161070d565b91505092915050565b600080604083850312156107665761076561063c565b5b60006107748582860161070d565b925050602061078585828601610658565b9150509250929050565b7f4e487b7100000000000000000000000000000000000000000000000000000000600052602260045260246000fd5b600060028204905060018216806107d657607f821691505b6020821081036107e9576107e861078f565b5b50919050565b7f6f6e77657220717565727920666f72206e6f6e2d657869737420746f6b656e00600082015250565b6000610825601f83610561565b9150610830826107ef565b602082019050919050565b6000602082019050818103600083015261085481610818565b9050919050565b7f546f6b656e2061742074686520676976656e20696e64657820646f65736e277460008201527f2065786973740000000000000000000000000000000000000000000000000000602082015250565b60006108b7602683610561565b91506108c28261085b565b604082019050919050565b600060208201905081810360008301526108e6816108aa565b9050919050565b7f4e487b7100000000000000000000000000000000000000000000000000000000600052603260045260246000fd5b7f6f776e657220717565727920666f72206e6f6e2d657869737420746f6b656e00600082015250565b6000610952601f83610561565b915061095d8261091c565b602082019050919050565b6000602082019050818103600083015261098181610945565b9050919050565b7f546f6b656e2061742074686520676976656e20696e646578206f66207468652060008201527f676976656e207573657220646f65736e27742065786973740000000000000000602082015250565b60006109e4603883610561565b91506109ef82610988565b604082019050919050565b60006020820190508181036000830152610a13816109d7565b905091905056fea2646970667358221220ae0a2866384cfe7effc1125a8f5c0bf0bb34ca1e9a8a0ee079e980c7f4c3366464736f6c63430008110033",
  "immutableReferences": {},
  "source": "//SPDX-License-Identifier: MIT\npragma solidity ^0.8.17;\n\nimport \"./ERC721Metadata.sol\";\nimport \"./ERC721Enumerable.sol\";\n\ncontract ERC721Connector is ERC721Metadata, ERC721Enumerable {\n    constructor(string memory name, string memory symbol) ERC721Metadata(name, symbol) {}\n}",
  "sourcePath": "/Users/m_kozhemiakin/Documents/Own projects/nft-market/contracts/ERC721Connector.sol",
  "compiler": {
    "name": "solc",
    "version": "0.8.17+commit.8df45f5f.Emscripten.clang"
  },
  "schemaVersion": "3.4.10",
  "updatedAt": "2022-11-02T17:29:34.181Z",
  "devdoc": {
    "kind": "dev",
    "methods": {},
    "version": 1
  },
  "userdoc": {
    "kind": "user",
    "methods": {},
    "version": 1
  }
}