{
  "contractName": "ERC721Enumerable",
  "abi": [
    {
      "anonymous": false,
      "inputs": [
        {
          "indexed": true,
          "internalType": "address",
          "name": "from",
          "type": "address"
        },
        {
          "indexed": true,
          "internalType": "address",
          "name": "to",
          "type": "address"
        },
        {
          "indexed": true,
          "internalType": "uint256",
          "name": "tokenId",
          "type": "uint256"
        }
      ],
      "name": "Transfer",
      "type": "event"
    },
    {
      "inputs": [
        {
          "internalType": "address",
          "name": "_owner",
          "type": "address"
        }
      ],
      "name": "balanceOf",
      "outputs": [
        {
          "internalType": "uint256",
          "name": "",
          "type": "uint256"
        }
      ],
      "stateMutability": "view",
      "type": "function"
    },
    {
      "inputs": [
        {
          "internalType": "uint256",
          "name": "_tokenId",
          "type": "uint256"
        }
      ],
      "name": "ownerOf",
      "outputs": [
        {
          "internalType": "address",
          "name": "",
          "type": "address"
        }
      ],
      "stateMutability": "view",
      "type": "function"
    },
    {
      "inputs": [
        {
          "internalType": "address",
          "name": "_from",
          "type": "address"
        },
        {
          "internalType": "address",
          "name": "_to",
          "type": "address"
        },
        {
          "internalType": "uint256",
          "name": "_tokenId",
          "type": "uint256"
        }
      ],
      "name": "transferFrom",
      "outputs": [],
      "stateMutability": "nonpayable",
      "type": "function"
    },
    {
      "inputs": [],
      "name": "totalSupply",
      "outputs": [
        {
          "internalType": "uint256",
          "name": "",
          "type": "uint256"
        }
      ],
      "stateMutability": "view",
      "type": "function"
    },
    {
      "inputs": [
        {
          "internalType": "uint256",
          "name": "index",
          "type": "uint256"
        }
      ],
      "name": "getTokenByIndex",
      "outputs": [
        {
          "internalType": "uint256",
          "name": "",
          "type": "uint256"
        }
      ],
      "stateMutability": "view",
      "type": "function"
    },
    {
      "inputs": [
        {
          "internalType": "address",
          "name": "owner",
          "type": "address"
        },
        {
          "internalType": "uint256",
          "name": "index",
          "type": "uint256"
        }
      ],
      "name": "getTokenByAddressAndIndex",
      "outputs": [
        {
          "internalType": "uint256",
          "name": "",
          "type": "uint256"
        }
      ],
      "stateMutability": "view",
      "type": "function"
    }
  ],
  "bytecode": "0x608060405234801561001057600080fd5b50610c4f806100206000396000f3fe608060405234801561001057600080fd5b50600436106100625760003560e01c806318160ddd1461006757806323b872dd146100855780636352211e146100a1578063644b7a43146100d157806370a0823114610101578063efafa77b14610131575b600080fd5b61006f610161565b60405161007c9190610661565b60405180910390f35b61009f600480360381019061009a919061070b565b61016e565b005b6100bb60048036038101906100b6919061075e565b61017e565b6040516100c8919061079a565b60405180910390f35b6100eb60048036038101906100e6919061075e565b61022e565b6040516100f89190610661565b60405180910390f35b61011b600480360381019061011691906107b5565b61029f565b6040516101289190610661565b60405180910390f35b61014b600480360381019061014691906107e2565b610356565b6040516101589190610661565b60405180910390f35b6000600280549050905090565b610179838383610406565b505050565b60008060008084815260200190815260200160002060009054906101000a900473ffffffffffffffffffffffffffffffffffffffff169050600073ffffffffffffffffffffffffffffffffffffffff168173ffffffffffffffffffffffffffffffffffffffff1603610225576040517f08c379a000000000000000000000000000000000000000000000000000000000815260040161021c9061087f565b60405180910390fd5b80915050919050565b6000610238610161565b8210610279576040517f08c379a000000000000000000000000000000000000000000000000000000000815260040161027090610911565b60405180910390fd5b6002828154811061028d5761028c610931565b5b90600052602060002001549050919050565b60008073ffffffffffffffffffffffffffffffffffffffff168273ffffffffffffffffffffffffffffffffffffffff160361030f576040517f08c379a0000000000000000000000000000000000000000000000000000000008152600401610306906109ac565b60405180910390fd5b600160008373ffffffffffffffffffffffffffffffffffffffff1673ffffffffffffffffffffffffffffffffffffffff168152602001908152602001600020549050919050565b60006103618361029f565b82106103a2576040517f08c379a000000000000000000000000000000000000000000000000000000000815260040161039990610a3e565b60405180910390fd5b600460008473ffffffffffffffffffffffffffffffffffffffff1673ffffffffffffffffffffffffffffffffffffffff16815260200190815260200160002082815481106103f3576103f2610931565b5b9060005260206000200154905092915050565b600073ffffffffffffffffffffffffffffffffffffffff168273ffffffffffffffffffffffffffffffffffffffff1603610475576040517f08c379a000000000000000000000000000000000000000000000000000000000815260040161046c90610ad0565b60405180910390fd5b8273ffffffffffffffffffffffffffffffffffffffff166104958261017e565b73ffffffffffffffffffffffffffffffffffffffff16146104eb576040517f08c379a00000000000000000000000000000000000000000000000000000000081526004016104e290610b62565b60405180910390fd5b60018060008573ffffffffffffffffffffffffffffffffffffffff1673ffffffffffffffffffffffffffffffffffffffff168152602001908152602001600020600082825461053a9190610bb1565b9250508190555060018060008473ffffffffffffffffffffffffffffffffffffffff1673ffffffffffffffffffffffffffffffffffffffff16815260200190815260200160002060008282546105909190610be5565b925050819055508160008083815260200190815260200160002060006101000a81548173ffffffffffffffffffffffffffffffffffffffff021916908373ffffffffffffffffffffffffffffffffffffffff160217905550808273ffffffffffffffffffffffffffffffffffffffff168473ffffffffffffffffffffffffffffffffffffffff167fddf252ad1be2c89b69c2b068fc378daa952ba7f163c4a11628f55a4df523b3ef60405160405180910390a4505050565b6000819050919050565b61065b81610648565b82525050565b60006020820190506106766000830184610652565b92915050565b600080fd5b600073ffffffffffffffffffffffffffffffffffffffff82169050919050565b60006106ac82610681565b9050919050565b6106bc816106a1565b81146106c757600080fd5b50565b6000813590506106d9816106b3565b92915050565b6106e881610648565b81146106f357600080fd5b50565b600081359050610705816106df565b92915050565b6000806000606084860312156107245761072361067c565b5b6000610732868287016106ca565b9350506020610743868287016106ca565b9250506040610754868287016106f6565b9150509250925092565b6000602082840312156107745761077361067c565b5b6000610782848285016106f6565b91505092915050565b610794816106a1565b82525050565b60006020820190506107af600083018461078b565b92915050565b6000602082840312156107cb576107ca61067c565b5b60006107d9848285016106ca565b91505092915050565b600080604083850312156107f9576107f861067c565b5b6000610807858286016106ca565b9250506020610818858286016106f6565b9150509250929050565b600082825260208201905092915050565b7f6f6e77657220717565727920666f72206e6f6e2d657869737420746f6b656e00600082015250565b6000610869601f83610822565b915061087482610833565b602082019050919050565b600060208201905081810360008301526108988161085c565b9050919050565b7f546f6b656e2061742074686520676976656e20696e64657820646f65736e277460008201527f2065786973740000000000000000000000000000000000000000000000000000602082015250565b60006108fb602683610822565b91506109068261089f565b604082019050919050565b6000602082019050818103600083015261092a816108ee565b9050919050565b7f4e487b7100000000000000000000000000000000000000000000000000000000600052603260045260246000fd5b7f6f776e657220717565727920666f72206e6f6e2d657869737420746f6b656e00600082015250565b6000610996601f83610822565b91506109a182610960565b602082019050919050565b600060208201905081810360008301526109c581610989565b9050919050565b7f546f6b656e2061742074686520676976656e20696e646578206f66207468652060008201527f676976656e207573657220646f65736e27742065786973740000000000000000602082015250565b6000610a28603883610822565b9150610a33826109cc565b604082019050919050565b60006020820190508181036000830152610a5781610a1b565b9050919050565b7f4572726f72202d20547279696e6720746f207472616e7366657220746f6b656e60008201527f20746f207a65726f206164647265737300000000000000000000000000000000602082015250565b6000610aba603083610822565b9150610ac582610a5e565b604082019050919050565b60006020820190508181036000830152610ae981610aad565b9050919050565b7f4572726f72202d20747279696e6720746f2073656e64206e6f6e2d657869737460008201527f696e6720746f6b656e20666f722063757272656e742061646472657373000000602082015250565b6000610b4c603d83610822565b9150610b5782610af0565b604082019050919050565b60006020820190508181036000830152610b7b81610b3f565b9050919050565b7f4e487b7100000000000000000000000000000000000000000000000000000000600052601160045260246000fd5b6000610bbc82610648565b9150610bc783610648565b9250828203905081811115610bdf57610bde610b82565b5b92915050565b6000610bf082610648565b9150610bfb83610648565b9250828201905080821115610c1357610c12610b82565b5b9291505056fea26469706673582212201e6e347d96fc1cbc9b7cfca53dac1de5faa861fe1c1ea8a94dfc915aa26d2bc964736f6c63430008110033",
  "immutableReferences": {},
  "source": "//SPDX-License-Identifier: MIT\npragma solidity ^0.8.17;\n\nimport './ERC721.sol';\n\ncontract ERC721Enumerable is ERC721 {\n    uint256[] private _totalSupply;\n\n    mapping(uint256 => uint256) private _allTokensIndex;\n    mapping(address => uint256[]) private _ownedTokens;\n    mapping(uint256 => uint256) private _ownedTokensIndex;\n\n    function totalSupply( ) public view returns(uint256) {\n        return _totalSupply.length;\n    }\n\n    function _mint (address to, uint256 tokenId) internal override (ERC721) {\n        super._mint(to, tokenId);\n        _addTokensToAllTokenEnumeration(tokenId);\n        _addTokensToOwnerEnumeration(to, tokenId);\n    }\n\n    function _addTokensToAllTokenEnumeration(uint256 tokenId) private {\n        _allTokensIndex[tokenId] = _totalSupply.length;\n        _totalSupply.push(tokenId);\n    }\n\n    function _addTokensToOwnerEnumeration(address to, uint256 tokenId) private {\n        _ownedTokensIndex[tokenId] = _ownedTokens[to].length;\n        _ownedTokens[to].push(tokenId);\n    }\n\n    function getTokenByIndex(uint256 index) public view returns(uint256) {\n        require(index < totalSupply(), \"Token at the given index doesn't exist\");\n        return _totalSupply[index];\n    }\n\n    function getTokenByAddressAndIndex(address owner, uint256 index) public view returns(uint256) {\n        require(index < balanceOf(owner), \"Token at the given index of the given user doesn't exist\");\n        return _ownedTokens[owner][index];\n    }\n}",
  "sourcePath": "/Users/m_kozhemiakin/Documents/Own projects/nft-market/contracts/ERC721Enumerable.sol",
  "compiler": {
    "name": "solc",
    "version": "0.8.17+commit.8df45f5f.Emscripten.clang"
  },
  "schemaVersion": "3.4.10",
  "updatedAt": "2022-11-05T10:11:41.607Z",
  "devdoc": {
    "kind": "dev",
    "methods": {},
    "version": 1
  },
  "userdoc": {
    "kind": "user",
    "methods": {},
    "version": 1
  }
}