{
  "contractName": "ERC721Enumerable",
  "abi": [
    {
      "anonymous": false,
      "inputs": [
        {
          "indexed": true,
          "internalType": "address",
          "name": "owner",
          "type": "address"
        },
        {
          "indexed": true,
          "internalType": "address",
          "name": "approved",
          "type": "address"
        },
        {
          "indexed": true,
          "internalType": "uint256",
          "name": "tokenId",
          "type": "uint256"
        }
      ],
      "name": "Approval",
      "type": "event"
    },
    {
      "anonymous": false,
      "inputs": [
        {
          "indexed": true,
          "internalType": "address",
          "name": "from",
          "type": "address"
        },
        {
          "indexed": true,
          "internalType": "address",
          "name": "to",
          "type": "address"
        },
        {
          "indexed": true,
          "internalType": "uint256",
          "name": "tokenId",
          "type": "uint256"
        }
      ],
      "name": "Transfer",
      "type": "event"
    },
    {
      "inputs": [
        {
          "internalType": "address",
          "name": "_to",
          "type": "address"
        },
        {
          "internalType": "uint256",
          "name": "_tokenId",
          "type": "uint256"
        }
      ],
      "name": "approve",
      "outputs": [],
      "stateMutability": "nonpayable",
      "type": "function"
    },
    {
      "inputs": [
        {
          "internalType": "address",
          "name": "_owner",
          "type": "address"
        }
      ],
      "name": "balanceOf",
      "outputs": [
        {
          "internalType": "uint256",
          "name": "",
          "type": "uint256"
        }
      ],
      "stateMutability": "view",
      "type": "function"
    },
    {
      "inputs": [
        {
          "internalType": "uint256",
          "name": "_tokenId",
          "type": "uint256"
        }
      ],
      "name": "ownerOf",
      "outputs": [
        {
          "internalType": "address",
          "name": "",
          "type": "address"
        }
      ],
      "stateMutability": "view",
      "type": "function"
    },
    {
      "inputs": [
        {
          "internalType": "bytes4",
          "name": "interfaceId",
          "type": "bytes4"
        }
      ],
      "name": "supportsInterface",
      "outputs": [
        {
          "internalType": "bool",
          "name": "",
          "type": "bool"
        }
      ],
      "stateMutability": "view",
      "type": "function"
    },
    {
      "inputs": [
        {
          "internalType": "address",
          "name": "_from",
          "type": "address"
        },
        {
          "internalType": "address",
          "name": "_to",
          "type": "address"
        },
        {
          "internalType": "uint256",
          "name": "_tokenId",
          "type": "uint256"
        }
      ],
      "name": "transferFrom",
      "outputs": [],
      "stateMutability": "nonpayable",
      "type": "function"
    },
    {
      "inputs": [],
      "name": "totalSupply",
      "outputs": [
        {
          "internalType": "uint256",
          "name": "",
          "type": "uint256"
        }
      ],
      "stateMutability": "view",
      "type": "function"
    },
    {
      "inputs": [
        {
          "internalType": "uint256",
          "name": "index",
          "type": "uint256"
        }
      ],
      "name": "getTokenByIndex",
      "outputs": [
        {
          "internalType": "uint256",
          "name": "",
          "type": "uint256"
        }
      ],
      "stateMutability": "view",
      "type": "function"
    },
    {
      "inputs": [
        {
          "internalType": "address",
          "name": "owner",
          "type": "address"
        },
        {
          "internalType": "uint256",
          "name": "index",
          "type": "uint256"
        }
      ],
      "name": "getTokenByAddressAndIndex",
      "outputs": [
        {
          "internalType": "uint256",
          "name": "",
          "type": "uint256"
        }
      ],
      "stateMutability": "view",
      "type": "function"
    }
  ],
  "bytecode": "0x608060405234801561001057600080fd5b506100407f01ffc9a7a5cef8baa21ed3c5c0d7e23accb804b619e9333b597f47a0d84076e261004560201b60201c565b610196565b63ffffffff60e01b817bffffffffffffffffffffffffffffffffffffffffffffffffffffffff1916036100ad576040517f08c379a00000000000000000000000000000000000000000000000000000000081526004016100a490610176565b60405180910390fd5b6001600080837bffffffffffffffffffffffffffffffffffffffffffffffffffffffff19167bffffffffffffffffffffffffffffffffffffffffffffffffffffffff1916815260200190815260200160002060006101000a81548160ff02191690831515021790555050565b600082825260208201905092915050565b7f496e76616c696420696e74657266616365207265717565737400000000000000600082015250565b6000610160601983610119565b915061016b8261012a565b602082019050919050565b6000602082019050818103600083015261018f81610153565b9050919050565b61122680620001a66000396000f3fe608060405234801561001057600080fd5b50600436106100885760003560e01c80636352211e1161005b5780636352211e14610113578063644b7a431461014357806370a0823114610173578063efafa77b146101a357610088565b806301ffc9a71461008d578063095ea7b3146100bd57806318160ddd146100d957806323b872dd146100f7575b600080fd5b6100a760048036038101906100a29190610a31565b6101d3565b6040516100b49190610a79565b60405180910390f35b6100d760048036038101906100d29190610b28565b61023a565b005b6100e16103d5565b6040516100ee9190610b77565b60405180910390f35b610111600480360381019061010c9190610b92565b6103e2565b005b61012d60048036038101906101289190610be5565b610405565b60405161013a9190610c21565b60405180910390f35b61015d60048036038101906101589190610be5565b6104b6565b60405161016a9190610b77565b60405180910390f35b61018d60048036038101906101889190610c3c565b610527565b60405161019a9190610b77565b60405180910390f35b6101bd60048036038101906101b89190610b28565b6105de565b6040516101ca9190610b77565b60405180910390f35b6000806000837bffffffffffffffffffffffffffffffffffffffffffffffffffffffff19167bffffffffffffffffffffffffffffffffffffffffffffffffffffffff1916815260200190815260200160002060009054906101000a900460ff169050919050565b600061024582610405565b90508073ffffffffffffffffffffffffffffffffffffffff168373ffffffffffffffffffffffffffffffffffffffff16036102b5576040517f08c379a00000000000000000000000000000000000000000000000000000000081526004016102ac90610cec565b60405180910390fd5b8073ffffffffffffffffffffffffffffffffffffffff163373ffffffffffffffffffffffffffffffffffffffff1614610323576040517f08c379a000000000000000000000000000000000000000000000000000000000815260040161031a90610d7e565b60405180910390fd5b826003600084815260200190815260200160002060006101000a81548173ffffffffffffffffffffffffffffffffffffffff021916908373ffffffffffffffffffffffffffffffffffffffff160217905550818373ffffffffffffffffffffffffffffffffffffffff168273ffffffffffffffffffffffffffffffffffffffff167f8c5be1e5ebec7d5bd14f71427d1e84f3dd0314c0f7b2291e5b200ac8c7c3b92560405160405180910390a4505050565b6000600480549050905090565b6103ec338261068e565b6103f557600080fd5b61040083838361071d565b505050565b6000806001600084815260200190815260200160002060009054906101000a900473ffffffffffffffffffffffffffffffffffffffff169050600073ffffffffffffffffffffffffffffffffffffffff168173ffffffffffffffffffffffffffffffffffffffff16036104ad576040517f08c379a00000000000000000000000000000000000000000000000000000000081526004016104a490610dea565b60405180910390fd5b80915050919050565b60006104c06103d5565b8210610501576040517f08c379a00000000000000000000000000000000000000000000000000000000081526004016104f890610e7c565b60405180910390fd5b6004828154811061051557610514610e9c565b5b90600052602060002001549050919050565b60008073ffffffffffffffffffffffffffffffffffffffff168273ffffffffffffffffffffffffffffffffffffffff1603610597576040517f08c379a000000000000000000000000000000000000000000000000000000000815260040161058e90610f17565b60405180910390fd5b600260008373ffffffffffffffffffffffffffffffffffffffff1673ffffffffffffffffffffffffffffffffffffffff168152602001908152602001600020549050919050565b60006105e983610527565b821061062a576040517f08c379a000000000000000000000000000000000000000000000000000000000815260040161062190610fa9565b60405180910390fd5b600660008473ffffffffffffffffffffffffffffffffffffffff1673ffffffffffffffffffffffffffffffffffffffff168152602001908152602001600020828154811061067b5761067a610e9c565b5b9060005260206000200154905092915050565b600061069982610962565b6106d8576040517f08c379a00000000000000000000000000000000000000000000000000000000081526004016106cf90611015565b60405180910390fd5b60006106e383610405565b90508073ffffffffffffffffffffffffffffffffffffffff168473ffffffffffffffffffffffffffffffffffffffff161491505092915050565b600073ffffffffffffffffffffffffffffffffffffffff168273ffffffffffffffffffffffffffffffffffffffff160361078c576040517f08c379a0000000000000000000000000000000000000000000000000000000008152600401610783906110a7565b60405180910390fd5b8273ffffffffffffffffffffffffffffffffffffffff166107ac82610405565b73ffffffffffffffffffffffffffffffffffffffff1614610802576040517f08c379a00000000000000000000000000000000000000000000000000000000081526004016107f990611139565b60405180910390fd5b6001600260008573ffffffffffffffffffffffffffffffffffffffff1673ffffffffffffffffffffffffffffffffffffffff16815260200190815260200160002060008282546108529190611188565b925050819055506001600260008473ffffffffffffffffffffffffffffffffffffffff1673ffffffffffffffffffffffffffffffffffffffff16815260200190815260200160002060008282546108a991906111bc565b92505081905550816001600083815260200190815260200160002060006101000a81548173ffffffffffffffffffffffffffffffffffffffff021916908373ffffffffffffffffffffffffffffffffffffffff160217905550808273ffffffffffffffffffffffffffffffffffffffff168473ffffffffffffffffffffffffffffffffffffffff167fddf252ad1be2c89b69c2b068fc378daa952ba7f163c4a11628f55a4df523b3ef60405160405180910390a4505050565b6000806001600084815260200190815260200160002060009054906101000a900473ffffffffffffffffffffffffffffffffffffffff169050600073ffffffffffffffffffffffffffffffffffffffff168173ffffffffffffffffffffffffffffffffffffffff161415915050919050565b600080fd5b60007fffffffff0000000000000000000000000000000000000000000000000000000082169050919050565b610a0e816109d9565b8114610a1957600080fd5b50565b600081359050610a2b81610a05565b92915050565b600060208284031215610a4757610a466109d4565b5b6000610a5584828501610a1c565b91505092915050565b60008115159050919050565b610a7381610a5e565b82525050565b6000602082019050610a8e6000830184610a6a565b92915050565b600073ffffffffffffffffffffffffffffffffffffffff82169050919050565b6000610abf82610a94565b9050919050565b610acf81610ab4565b8114610ada57600080fd5b50565b600081359050610aec81610ac6565b92915050565b6000819050919050565b610b0581610af2565b8114610b1057600080fd5b50565b600081359050610b2281610afc565b92915050565b60008060408385031215610b3f57610b3e6109d4565b5b6000610b4d85828601610add565b9250506020610b5e85828601610b13565b9150509250929050565b610b7181610af2565b82525050565b6000602082019050610b8c6000830184610b68565b92915050565b600080600060608486031215610bab57610baa6109d4565b5b6000610bb986828701610add565b9350506020610bca86828701610add565b9250506040610bdb86828701610b13565b9150509250925092565b600060208284031215610bfb57610bfa6109d4565b5b6000610c0984828501610b13565b91505092915050565b610c1b81610ab4565b82525050565b6000602082019050610c366000830184610c12565b92915050565b600060208284031215610c5257610c516109d4565b5b6000610c6084828501610add565b91505092915050565b600082825260208201905092915050565b7f4572726f72202d20617070726f76616c20666f722063757272656e74206f776e60008201527f6572000000000000000000000000000000000000000000000000000000000000602082015250565b6000610cd6602283610c69565b9150610ce182610c7a565b604082019050919050565b60006020820190508181036000830152610d0581610cc9565b9050919050565b7f43757272656e742063616c6c6572206973206e6f7420746865206f776e65722060008201527f6f662074686520746f6b656e0000000000000000000000000000000000000000602082015250565b6000610d68602c83610c69565b9150610d7382610d0c565b604082019050919050565b60006020820190508181036000830152610d9781610d5b565b9050919050565b7f6f6e77657220717565727920666f72206e6f6e2d657869737420746f6b656e00600082015250565b6000610dd4601f83610c69565b9150610ddf82610d9e565b602082019050919050565b60006020820190508181036000830152610e0381610dc7565b9050919050565b7f546f6b656e2061742074686520676976656e20696e64657820646f65736e277460008201527f2065786973740000000000000000000000000000000000000000000000000000602082015250565b6000610e66602683610c69565b9150610e7182610e0a565b604082019050919050565b60006020820190508181036000830152610e9581610e59565b9050919050565b7f4e487b7100000000000000000000000000000000000000000000000000000000600052603260045260246000fd5b7f6f776e657220717565727920666f72206e6f6e2d657869737420746f6b656e00600082015250565b6000610f01601f83610c69565b9150610f0c82610ecb565b602082019050919050565b60006020820190508181036000830152610f3081610ef4565b9050919050565b7f546f6b656e2061742074686520676976656e20696e646578206f66207468652060008201527f676976656e207573657220646f65736e27742065786973740000000000000000602082015250565b6000610f93603883610c69565b9150610f9e82610f37565b604082019050919050565b60006020820190508181036000830152610fc281610f86565b9050919050565b7f546f6b656e20646f65736e742065786973740000000000000000000000000000600082015250565b6000610fff601283610c69565b915061100a82610fc9565b602082019050919050565b6000602082019050818103600083015261102e81610ff2565b9050919050565b7f4572726f72202d20547279696e6720746f207472616e7366657220746f6b656e60008201527f20746f207a65726f206164647265737300000000000000000000000000000000602082015250565b6000611091603083610c69565b915061109c82611035565b604082019050919050565b600060208201905081810360008301526110c081611084565b9050919050565b7f4572726f72202d20747279696e6720746f2073656e64206e6f6e2d657869737460008201527f696e6720746f6b656e20666f722063757272656e742061646472657373000000602082015250565b6000611123603d83610c69565b915061112e826110c7565b604082019050919050565b6000602082019050818103600083015261115281611116565b9050919050565b7f4e487b7100000000000000000000000000000000000000000000000000000000600052601160045260246000fd5b600061119382610af2565b915061119e83610af2565b92508282039050818111156111b6576111b5611159565b5b92915050565b60006111c782610af2565b91506111d283610af2565b92508282019050808211156111ea576111e9611159565b5b9291505056fea2646970667358221220803b8f0c8c7c7e62b1c2f87ae92e840cdb3b121f0c9c949740c73a6321af9a5a64736f6c63430008110033",
  "immutableReferences": {},
  "source": "//SPDX-License-Identifier: MIT\npragma solidity ^0.8.17;\n\nimport './ERC721.sol';\n\ncontract ERC721Enumerable is ERC721 {\n    uint256[] private _totalSupply;\n\n    mapping(uint256 => uint256) private _allTokensIndex;\n    mapping(address => uint256[]) private _ownedTokens;\n    mapping(uint256 => uint256) private _ownedTokensIndex;\n\n    function totalSupply( ) public view returns(uint256) {\n        return _totalSupply.length;\n    }\n\n    function _mint (address to, uint256 tokenId) internal override (ERC721) {\n        super._mint(to, tokenId);\n        _addTokensToAllTokenEnumeration(tokenId);\n        _addTokensToOwnerEnumeration(to, tokenId);\n    }\n\n    function _addTokensToAllTokenEnumeration(uint256 tokenId) private {\n        _allTokensIndex[tokenId] = _totalSupply.length;\n        _totalSupply.push(tokenId);\n    }\n\n    function _addTokensToOwnerEnumeration(address to, uint256 tokenId) private {\n        _ownedTokensIndex[tokenId] = _ownedTokens[to].length;\n        _ownedTokens[to].push(tokenId);\n    }\n\n    function getTokenByIndex(uint256 index) public view returns(uint256) {\n        require(index < totalSupply(), \"Token at the given index doesn't exist\");\n        return _totalSupply[index];\n    }\n\n    function getTokenByAddressAndIndex(address owner, uint256 index) public view returns(uint256) {\n        require(index < balanceOf(owner), \"Token at the given index of the given user doesn't exist\");\n        return _ownedTokens[owner][index];\n    }\n}",
  "sourcePath": "/Users/m_kozhemiakin/Documents/Own projects/nft-market/contracts/ERC721Enumerable.sol",
  "compiler": {
    "name": "solc",
    "version": "0.8.17+commit.8df45f5f.Emscripten.clang"
  },
  "schemaVersion": "3.4.10",
  "updatedAt": "2022-11-12T13:01:52.796Z",
  "devdoc": {
    "kind": "dev",
    "methods": {},
    "version": 1
  },
  "userdoc": {
    "kind": "user",
    "methods": {},
    "version": 1
  }
}