{
  "contractName": "ERC721Enumerable",
  "abi": [
    {
      "anonymous": false,
      "inputs": [
        {
          "indexed": true,
          "internalType": "address",
          "name": "from",
          "type": "address"
        },
        {
          "indexed": true,
          "internalType": "address",
          "name": "to",
          "type": "address"
        },
        {
          "indexed": true,
          "internalType": "uint256",
          "name": "tokenId",
          "type": "uint256"
        }
      ],
      "name": "Transfer",
      "type": "event"
    },
    {
      "inputs": [
        {
          "internalType": "address",
          "name": "_owner",
          "type": "address"
        }
      ],
      "name": "balanceOf",
      "outputs": [
        {
          "internalType": "uint256",
          "name": "",
          "type": "uint256"
        }
      ],
      "stateMutability": "view",
      "type": "function"
    },
    {
      "inputs": [
        {
          "internalType": "uint256",
          "name": "_tokenId",
          "type": "uint256"
        }
      ],
      "name": "ownerOf",
      "outputs": [
        {
          "internalType": "address",
          "name": "",
          "type": "address"
        }
      ],
      "stateMutability": "view",
      "type": "function"
    },
    {
      "inputs": [],
      "name": "totalSupply",
      "outputs": [
        {
          "internalType": "uint256",
          "name": "",
          "type": "uint256"
        }
      ],
      "stateMutability": "view",
      "type": "function"
    }
  ],
  "bytecode": "0x608060405234801561001057600080fd5b5061049e806100206000396000f3fe608060405234801561001057600080fd5b50600436106100415760003560e01c806318160ddd146100465780636352211e1461006457806370a0823114610094575b600080fd5b61004e6100c4565b60405161005b9190610251565b60405180910390f35b61007e6004803603810190610079919061029d565b6100d1565b60405161008b919061030b565b60405180910390f35b6100ae60048036038101906100a99190610352565b610181565b6040516100bb9190610251565b60405180910390f35b6000600280549050905090565b60008060008084815260200190815260200160002060009054906101000a900473ffffffffffffffffffffffffffffffffffffffff169050600073ffffffffffffffffffffffffffffffffffffffff168173ffffffffffffffffffffffffffffffffffffffff1603610178576040517f08c379a000000000000000000000000000000000000000000000000000000000815260040161016f906103dc565b60405180910390fd5b80915050919050565b60008073ffffffffffffffffffffffffffffffffffffffff168273ffffffffffffffffffffffffffffffffffffffff16036101f1576040517f08c379a00000000000000000000000000000000000000000000000000000000081526004016101e890610448565b60405180910390fd5b600160008373ffffffffffffffffffffffffffffffffffffffff1673ffffffffffffffffffffffffffffffffffffffff168152602001908152602001600020549050919050565b6000819050919050565b61024b81610238565b82525050565b60006020820190506102666000830184610242565b92915050565b600080fd5b61027a81610238565b811461028557600080fd5b50565b60008135905061029781610271565b92915050565b6000602082840312156102b3576102b261026c565b5b60006102c184828501610288565b91505092915050565b600073ffffffffffffffffffffffffffffffffffffffff82169050919050565b60006102f5826102ca565b9050919050565b610305816102ea565b82525050565b600060208201905061032060008301846102fc565b92915050565b61032f816102ea565b811461033a57600080fd5b50565b60008135905061034c81610326565b92915050565b6000602082840312156103685761036761026c565b5b60006103768482850161033d565b91505092915050565b600082825260208201905092915050565b7f6f6e77657220717565727920666f72206e6f6e2d657869737420746f6b656e00600082015250565b60006103c6601f8361037f565b91506103d182610390565b602082019050919050565b600060208201905081810360008301526103f5816103b9565b9050919050565b7f6f776e657220717565727920666f72206e6f6e2d657869737420746f6b656e00600082015250565b6000610432601f8361037f565b915061043d826103fc565b602082019050919050565b6000602082019050818103600083015261046181610425565b905091905056fea2646970667358221220287f0b3d3583874317fb236a071cb6a68134126ce0adbbb94576e0fac8929a5b64736f6c63430008110033",
  "immutableReferences": {},
  "source": "//SPDX-License-Identifier: MIT\npragma solidity ^0.8.17;\n\nimport './ERC721.sol';\n\ncontract ERC721Enumerable is ERC721 {\n    uint256[] private _totalSupply;\n\n    mapping(uint256 => uint256) private _allTokensIndex;\n    mapping(address => uint256[]) private _ownedTokens;\n    mapping(uint256 => uint256) private _ownedTokensIndex;\n\n    function totalSupply() public view returns(uint256) {\n        return _totalSupply.length;\n    }\n\n    function _mint (address to, uint256 tokenId) internal override (ERC721) {\n        super._mint(to, tokenId);\n        _addTokensToTotalSupply(tokenId);\n    }\n\n    function _addTokensToTotalSupply(uint256 tokenId) private {\n        _totalSupply.push(tokenId);\n    }\n}",
  "sourcePath": "/Users/m_kozhemiakin/Documents/Own projects/nft-market/contracts/ERC721Enumerable.sol",
  "compiler": {
    "name": "solc",
    "version": "0.8.17+commit.8df45f5f.Emscripten.clang"
  },
  "schemaVersion": "3.4.10",
  "updatedAt": "2022-11-01T20:19:08.604Z",
  "devdoc": {
    "kind": "dev",
    "methods": {},
    "version": 1
  },
  "userdoc": {
    "kind": "user",
    "methods": {},
    "version": 1
  }
}